:100000000C943E000C94F4050C945B000C945B0083
:100010000C945B000C945B000C945B000C945B00F4
:100020000C945B000C945B000C945B000C945B00E4
:100030000C941B060C94CA1B0C945B000C945B0084
:100040000C945B000C945B000C945B000C945B00C4
:100050000C945B000C945B000C945B000C94D91B1B
:100060000C945B000C945B000C945B000C945B00A4
:100070000C945B000C945B000C945B0011241FBE7D
:10008000CFEFD8E0DEBFCDBF11E0A0E0B1E0E2E00D
:10009000FBE302C005900D92A630B107D9F712E03C
:1000A000A6E0B1E001C01D92AD37B107E1F70E94B3
:1000B0003F1A0C947F1D0C940000E89A089581E08B
:1000C0006FE140E00E94FF04883011F080E0089565
:1000D0008FE00E94B30482E069E00E94A2048FE0F6
:1000E0000E94B30480FFFBCF81E008958CE260EFB3
:1000F00044E023E00E9418058CE260EF44E028E031
:100100000E9418058CE26EE041E024E00E94180590
:100110008FE260E00E94A2040E945F0082E069E139
:100120000E94A20482E08A95F1F700C081E06FE1AD
:1001300040E00E94FF04893189F71092000181E0BC
:1001400080937C02289A000000000000000000005C
:1001500028986091800180E891E00E94E9048091F4
:1001600000018823E1F3089582E063E00E94A20485
:1001700082E08A95F1F700C0289A089582E068E04D
:100180000E94A2040E945F0086E080937C0282E0CD
:1001900066E10E94A204089582E069E00E94A20440
:1001A00081E080937C0210920001289A00000000F8
:1001B00000000000000028986091800180E891E034
:1001C0000E94E90408950F931F93082F162F6623AA
:1001D00009F443C08CE260EF44E023E00E9418057C
:1001E0008CE260EF44E028E00E941805023008F439
:1001F0003DC08FE263E50E94A2048CE26EE041E024
:1002000024E00E9418050E945F0082E069E10E94DC
:10021000A20482E08A95F1F700C081E06FE140E03E
:100220000E94FF04893189F71092000181E08093D8
:100230007C02289A000000000000000000002898BE
:100240006091800180E891E00E94E90480910001C2
:100250008823E1F31F910F9108958CE260EF44E051
:1002600020E00E941805023008F0C3CF112359F096
:100270008CE26EE041E024E00E9418058FE260E02D
:100280000E94A204C0CF8CE26EE041E027E00E9411
:100290001805B9CF83E48093800183E298E89093B6
:1002A0008201809381018FEF80938301E0910401AB
:1002B000F091050186A997A9909385018093840107
:1002C00024A935A930938701209386019093890151
:1002D0008093880182A993A990938B0180938A01CE
:1002E00078940E94760080E090E0FC01E250FE4F9E
:1002F0001486019683379105C1F70E94BE000895C8
:100300001F93182F40E058EF6FEF77E0082E04C0DE
:1003100076956795579547950A94D2F74170507036
:100320004115510539F488E06FE140E00E94FF0477
:100330001F91089582E068E00E94A20481E06FE1CD
:1003400040E00E94FF048830C9F76FE140E0212FB0
:100350000E94180588E06FE140E00E94FF041F91B1
:1003600008951F93182F82E068E00E94A20481E0A4
:100370006FE140E00E94FF048830C9F71230A9F114
:10038000133038F01031E1F11131D1F080E01F91DC
:1003900008951123D9F78CE063E040E020E00E944B
:1003A000180587E164E042E020E00E94180585E13D
:1003B0006FE040E020E00E94180581E01F91089561
:1003C0008CE063E040E023E00E94180587E164E0F0
:1003D00042E021E00E94180585E16FE040E021E065
:1003E0000E94180581E01F9108958CE063E040E0D1
:1003F00021E00E94180587E164E042E021E0D5CFCA
:100400008CE063E040E022E0F4CF3F9A279A3E9AE6
:10041000259A209A26980E94990480E06DE173E065
:100420000E94D3050E945D00469A289883E992E0D5
:100430000197F1F700C00000469892E09A95F1F715
:1004400000C0469A8DE10E94B3048230D9F78CE156
:100450000E94B3048330B1F782E068E00E94A204F6
:1004600081E06FE140E00E94FF048830C9F783E03B
:1004700060E344E020E00E94180583E068E043E088
:1004800020E00E94180583E067E040E021E00E9440
:1004900018058EE260E245E021E00E9418058CE03C
:1004A00060E847E021E00E94180584E062E041E056
:1004B00021E00E9418058EE068E00E94A20484E01A
:1004C00060E446E021E00E941805E0910401F0910B
:1004D000050182E266A90E94A204E0910401F09164
:1004E000050167A983E20E94A204E0910401F09152
:1004F000050180E262A90E94A204E0910401F0914A
:10050000050163A981E20E94A20488E060E645E05B
:1005100021E00E9418058FE26FE040E023E00E9496
:1005200018058EE268E043E020E00E9418058FE2A3
:1005300060EF44E025E00E941805E0910401F0918D
:10054000050181AD0E94B101E0910401F091050126
:1005500088E06FE140E020AD0E941805E0910401C1
:10056000F091050185E06FE040E022AD0E941805A2
:1005700010927C0208951F93182F803118F08FEF8E
:100580001F91089582E068E00E94A20481E06FE17B
:1005900040E00E94FF048830C9F785E06FE040E04A
:1005A000212F0E94180585E06FE040E00E94FF04C3
:1005B0001F91089582E063E00E94A20488E160E850
:1005C00047E021E00E94180582E48A95F1F700C017
:1005D0000895DF93CF930F92CDB7DEB787E00E94E7
:1005E000B30480930601CE01019661E00E94C50428
:1005F000898187FD07C086E060E847E00E94FF042C
:10060000882321F40F90CF91DF91089569816E5F67
:1006100069838EEF91E00E94C5048091FF01909163
:100620000002877090708330910561F780910A0213
:10063000803441F70E940038E5CF8FE00E94B30478
:1006400083FF05C020917C02213029F085FF0895A9
:100650000E94E902089586FD09C082E060EE45E04F
:100660000E94FF0482E066E00E94A20481E0809381
:10067000000182E080937C0208953898409A39986E
:10068000419A84E08093B8001092BC0088EF809378
:10069000B900089594EA9093BC009091BC0097FF34
:1006A000FCCF8093BB0084E88093BC008091BC00A9
:1006B00087FFFCCF9091B900987F81E0903409F0DA
:1006C00080E008958093BB0084E88093BC00809113
:1006D000BC0087FFFCCF0895882351F084EC809301
:1006E000BC008091BC0087FFFCCF8091BB000895C7
:1006F00084E88093BC00F5CF84E98093BC00089522
:100700003898409A3998419A84E08093B8001092C2
:10071000BC0088EF8093B90084EA8093BC0080918C
:10072000BC0087FFFCCF80E98093BB0084E8809306
:10073000BC008091BC0087FFFCCF8091B9008CEA9F
:100740008093BB0084E88093BC008091BC0087FF4D
:10075000FCCF88E08093BB0084E88093BC0080914C
:10076000BC0087FFFCCF84EA8093BC008091BC0072
:1007700087FFFCCF80E98093BB0084E88093BC00B6
:100780008091BC0087FFFCCF8091B90081E5809308
:10079000BB0084E88093BC008091BC0087FFFCCF45
:1007A00084E98093BC00089584EA8093BC00809122
:1007B000BC0087FFFCCF80E98093BB0084E8809376
:1007C000BC008091BC0087FFFCCF8091B90082E221
:1007D0008093BB0084E88093BC008091BC0087FFBD
:1007E000FCCF84E98093BC00089584EA8093BC0028
:1007F0008091BC0087FFFCCF80E98093BB0084E838
:100800008093BC008091BC0087FFFCCF8091B90031
:1008100081E58093BB0084E88093BC008091BC009C
:1008200087FFFCCF84E98093BC00089584EA80931D
:10083000BC008091BC0087FFFCCF80E98093BB00A7
:1008400084E88093BC008091BC0087FFFCCF80913E
:10085000B9008AEA8093BB0084E88093BC00809151
:10086000BC0087FFFCCF84EA8093BC008091BC0071
:1008700087FFFCCF81E98093BB0084E88093BC00B4
:100880008091BC0087FFFCCF8091B90084EC8093FD
:10089000BC008091BC0087FFFCCF3091BB0084E896
:1008A0008093BC008091BC0087FFFCCF2091BB00EF
:1008B00084E98093BC00932F80E030E0282B392B13
:1008C000C90108950F931F93CF93DF93182F092F1A
:1008D00080E090E00E94691D8F3F79F0C801092FE8
:1008E000182FC0E0D0E0CE010E94691DF80181936D
:1008F0008F012196C736D105B1F7DF91CF911F91B6
:100900000F9108950F931F93CF93DF93082F192F03
:10091000C0E0D0E0F80161918F01CE010E94711D0D
:100920002196C736D105B1F7DF91CF911F910F9175
:10093000089580E58CBD81E08DBD8CB58C7F8CBD2C
:10094000479A0895F8949DB3E898806C47988EBDB7
:100950000DB407FEFDCF6EBD0DB407FEFDCF479A67
:100960009DBB78940895F8949DB3E8988068479863
:100970008EBD0DB407FEFDCF1EBC0DB407FEFDCF2E
:100980008EB5479A9DBB78940895F894479820E2D5
:100990002EBD0DB407FEFDCF1EBC613089F0262FA1
:1009A000FC010DB407FEFDCF3EB51EBC31932150B6
:1009B0002230B8F7625070E06F5F7F4F860F971F4D
:1009C0000DB407FEFDCF2EB5FC012083479A789425
:1009D0000895FC01F894479880E68EBD0DB407FE9B
:1009E000FDCF819161500DB407FEFDCF8EBD662312
:1009F000C1F70DB407FEFDCF479A78940895F89497
:100A00009DB3E898806847988EBD0DB407FEFDCF72
:100A10001EBC0DB407FEFDCF8EB5479A9DBB7894E2
:100A2000862390E002C0959587954A95E2F7089550
:100A3000F8949DB3E898382F306847983EBD0DB4C0
:100A400007FEFDCF1EBC0DB407FEFDCF3EB5479A95
:100A50009DBB7894962F9095932330E002C0220F8F
:100A6000331F4A95E2F72623292BF8949DB3E89883
:100A7000806C47988EBD0DB407FEFDCF2EBD0DB422
:100A800007FEFDCF479A9DBB78940895FB019DB367
:100A9000E898479820E42EBD0DB407FEFDCF8EBD2B
:100AA0000DB407FEFDCF819141500DB407FEFDCF7F
:100AB0008EBD4423C1F70DB407FEFDCF479A9DBB01
:100AC000089500000000000000005DB3E89847981A
:100AD0001EBC0DB407FEFDCF8EBD0DB407FEFDCFCD
:100AE0001EBC4130A9F04250242F30E0CB010196CA
:100AF000820F931FFB010DB407FEFDCF4EB51EBC48
:100B00004193E817F907B9F72F5F3F4F620F731F43
:100B10000DB407FEFDCF8EB5FB018083479A5DBB08
:100B20000895CF93DF930000000000000000ADB3F4
:100B3000E898479890E49EBD0DB407FEFDCF8EBDAA
:100B40000DB407FEFDCFFB0181918EBD0DB407FEF4
:100B5000FDCFEB0189818EBD2181413011F14250E1
:100B600050E0CF01840F951FFB010DB407FEFDCFB0
:100B70003EB531932EBD2281E817F907B1F7FA018E
:100B80003196E60FF71F0DB407FEFDCF1EBC0DB466
:100B900007FEFDCF8EB58083479AADBBDF91CF9125
:100BA0000895FB01F0CFE82FF0E0EE0FFF1FE95FA3
:100BB000FE4F71836083882379F0813009F00895B6
:100BC00080916F008F7D80936F00809181008064A1
:100BD00080938100B59A0895809169008360809325
:100BE000690081E08CBB08951F920F920FB60F929F
:100BF00011242F933F934F935F936F937F938F9322
:100C00009F93AF93BF93EF93FF93E0910701F09110
:100C100008010995FF91EF91BF91AF919F918F913D
:100C20007F916F915F914F913F912F910F900FBEE8
:100C30000F901F9018951F920F920FB60F921124CC
:100C40002F933F934F935F936F937F938F939F93D4
:100C5000AF93BF93EF93FF93E0910901F0910A01E5
:100C60000995FF91EF91BF91AF919F918F917F91E6
:100C70006F915F914F913F912F910F900FBE0F9009
:100C80001F901895AF92BF92CF92DF92EF92FF9292
:100C90000F931F93DF93CF93CDB7DEB729970FB68E
:100CA000F894DEBF0FBECDBF1B821A821C821D824C
:100CB0001E821F82198210926F0078948981882386
:100CC00009F01FC21886EE24EA9430E2C32E2BE00E
:100CD000F22E93E3D92E82E1B82E2EC082E060EE90
:100CE00045E00E94FF04853009F461C08C819D813C
:100CF000AE81BF81803231EA930737E0A30730E04D
:100D0000B30730F01C821D821E821F8281E089831E
:100D10008C819D81AE81BF810196A11DB11D8C8307
:100D20009D83AE83BF838AE18A95F1F700C0A895C1
:100D30008981882309F04CC08091FF0190910002C5
:100D4000877090708330910549F61C821D821E8247
:100D50001F82109200021092FF0140910A0240325D
:100D600009F47DC1413230F5403109F4DEC0413132
:100D700008F478C0453109F4B9C0463109F075C0AE
:100D800090910B0280910C02192F00E09801280F1E
:100D9000311D3B832A838A819B8131E08D32930709
:100DA00008F48AC1E0928C0140938D0156C081E025
:100DB00089839CCF423309F4BFC0433380F143336E
:100DC00009F470C0403409F050C00E94D73C86CF6F
:100DD00010920A02198282E080936F0086BB68E05D
:100DE0000E94A2042885283039F081E06FE140E0BC
:100DF0000E94FF048830C9F70E945F0029960FB651
:100E0000F894DEBF0FBECDBFCF91DF911F910F9140
:100E1000FF90EF90DF90CF90BF90AF900895403358
:100E200071F1413311F55C9881E049870E945D17AB
:100E300082E00E945D1784E00E945D1788E00E94B6
:100E40005D1780910401909105010E9482045C9AD3
:100E5000F0928C01498540938D010E944A0181E006
:100E600089833CCF4F3009F4EFC0E0928C01AA2473
:100E7000A394A0928D010E944A01A9822FCF498795
:100E80000E9416049B838A83F0928C0149854093CB
:100E90008D018A819B8180938E018A819B819093B1
:100EA0008F01DBCF1B821A828A819B818032910560
:100EB000A0F4EA81FB81AA81BB81A25ABE4F8C912A
:100EC000ED57FE4F84878A819B8101969B838A839D
:100ED0008A819B818032910560F3F0928C01D092DF
:100EE0008D010E944A0181E08983F8CEF0928C0145
:100EF00040938D01E0910401F091050190A981A931
:100F000090938E0180938F0196A587A59093900171
:100F100080939101808180939201818180939301DC
:100F20000E944A0181E08983D9CEF0928C014093DE
:100F30008D0181E08983D2CE80910D0290910E02C5
:100F4000A0910F02B091100280935E0190935F0117
:100F5000A0936001B09361018091110290911202FF
:100F6000A0911302B09114028093620190936301E7
:100F7000A0936401B09365018091150290911602CF
:100F8000A0911702B09118028093660190936701B7
:100F9000A0936801B09369018091190290911A029F
:100FA000A0911B02B0911C0280936A0190936B0187
:100FB000A0936C01B0936D0180911D0290911E026F
:100FC000A0911F02B091200280936E0190936F0157
:100FD000A0937001B093710180912102909122023F
:100FE000A0912302B0912402809372019093730127
:100FF000A0937401B093750180912502909126020F
:10100000A0912702B09128028093760190937701F6
:10101000A0937801B09379018091290290912A02DE
:10102000A0912B02B0912C0280937A0190937B01C6
:10103000A0937C01B0937D01809104019091050102
:1010400049870E94820404CFF0928C0140938D0165
:101050000E944A0181E08093130189833FCE82E0A0
:1010600068E00E94A2048885883039F081E06FE151
:1010700040E00E94FF048830C9F780910B020E9473
:10108000800190E09B838A8320910B028A819B815F
:1010900030E02817390709F442C0E0928C01C09271
:1010A0008D018A819B8180938E010E944A0181E09B
:1010B000898328E0288712CE8A819B8190935301EF
:1010C00080935201809104019091050149870E940B
:1010D0008204F0928C01498540938D0180915201E8
:1010E000909153010097C1F081E080930101B0BE5F
:1010F00010920B0110920C0110920D0110920E0132
:10110000ACCE10920A02198282E080936F0086BBF7
:1011100068E00E94A20469CE10920101E9CF80919B
:101120000B0280934F0180910401909105010E9470
:101130008204F0928C01C0928D018A819B81809300
:101140008E01B3CFF89492B1982B92B921B1982F18
:101150009095292321B900000000149A0C98049B53
:10116000FECF000000000000000022B1292322B9B8
:1011700021B1282B21B90000000014980C9A00001E
:101180000000000022B1282B22B921B1292321B966
:1011900000000000149A0C98049BFECF0000000091
:1011A0000000000014980C9A00000000000022B11A
:1011B000292322B921B1282B21B900000000149A5B
:1011C0000C98049BFECF0000000000000000149863
:1011D0000C9A00000000000022B1292322B921B19D
:1011E000282B21B900000000149A0C98049BFECF14
:1011F000000000000000000014980C9A000000009D
:10120000000022B1282B22B921B1292321B90000E5
:101210000000149A0C98049BFECF00000000000010
:10122000000014980C9A00000000000022B129234D
:1012300022B921B1282B21B900000000149A0C9882
:10124000049BFECF000000000000000014980C9AE0
:1012500000000000000022B1292322B921B1282B6F
:1012600021B900000000149A0C98049BFECF0000E6
:1012700000000000000014980C9A0000000000001C
:1012800022B1292322B921B1282B21B90000000065
:10129000149A0C98049BFECF000000000000000090
:1012A00014980C9A00000000000022B1292322B9F2
:1012B00021B1282B21B900000000149A0C98049B3E
:1012C000FECF000000000000000014980C9A0000FF
:1012D0000000000022B1282B22B921B1292321B915
:1012E00000000000149A0C98049BFECF0000000040
:1012F0000000000014980C9A0000000067FD83C1F4
:1013000022B1292322B921B1282B21B9149A0C9892
:10131000049BFECF000000000000000014980C9A0F
:10132000262F220F66FD82C132B1392332B931B185
:10133000382B31B9149A0C98049BFECF00000000A2
:101340000000000014980C9A322F330F26FD81C143
:1013500022B1292322B921B1282B21B9149A0C9842
:10136000049BFECF000000000000000014980C9ABF
:10137000232F220F36FD80C132B1392332B931B16A
:10138000382B31B9149A0C98049BFECF0000000052
:101390000000000014980C9A322F330F26FD7FC1F5
:1013A00022B1292322B921B1282B21B9149A0C98F2
:1013B000049BFECF000000000000000014980C9A6F
:1013C000232F220F36FD7EC132B1392332B931B11C
:1013D000382B31B9149A0C98049BFECF0000000002
:1013E0000000000014980C9A322F330F26FD7DC1A7
:1013F00022B1292322B921B1282B21B9149A0C98A2
:10140000049BFECF000000000000000014980C9A1E
:1014100036FD7CC122B1292322B921B1282B21B963
:1014200000000000149A0C98049BFECF00000000FE
:101430000000000014980C9A22B1282B22B921B187
:10144000292321B900000000000000000000149AC8
:101450000C98049BFECF00000000000000001498D0
:101460000C9A0000000047FDC5C122B1292322B912
:1014700021B1282B21B9149A0C98049BFECF0000AF
:1014800000000000000014980C9A242F220F46FD43
:10149000A3C132B1392332B931B1382B31B9149AE1
:1014A0000C98049BFECF0000000000000000149880
:1014B0000C9A322F330F26FD81C122B1292322B984
:1014C00021B1282B21B9149A0C98049BFECF00005F
:1014D00000000000000014980C9A232F220F36FD04
:1014E0005FC132B1392332B931B1382B31B9149AD5
:1014F0000C98049BFECF0000000000000000149830
:101500000C9A322F330F26FD3DC122B1292322B977
:1015100021B1282B21B9149A0C98049BFECF00000E
:1015200000000000000014980C9A232F220F36FDB3
:101530001BC132B1392332B931B1382B31B9149AC8
:101540000C98049BFECF00000000000000001498DF
:101550000C9A322F330F26FDF9C022B1292322B96C
:1015600021B1282B21B9149A0C98049BFECF0000BE
:1015700000000000000014980C9A36FDD7C022B17C
:10158000292322B921B1282B21B900000000149A87
:101590000C98049BFECF000000000000000014988F
:1015A0000C9A22B1282B22B921B1292321B900009C
:1015B0000000000000000000149A0C98049BFECF6D
:1015C000000000000000000014980C9A00000000C9
:1015D000000022B1292322B921B1282B21B9000012
:1015E0000000149A0C98049BFECF0000000000003D
:1015F000000022B1282B22B981B1892381B90000D2
:1016000000007894089522B1282B22B921B1292312
:1016100021B90000149A0C98049BFECF0000000032
:1016200014980C9A262F220F66FF7ECE32B1382BEB
:1016300032B931B1392331B90000149A0C98049BA6
:10164000FECF0000000014980C9A322F330F26FFB3
:101650007FCE22B1282B22B921B1292321B9000044
:10166000149A0C98049BFECF0000000014980C9A6A
:10167000232F220F36FF80CE32B1382B32B931B151
:10168000392331B90000149A0C98049BFECF000056
:10169000000014980C9A322F330F26FF81CE22B10E
:1016A000282B22B921B1292321B90000149A0C98C2
:1016B000049BFECF0000000014980C9A232F220FE9
:1016C00036FF82CE32B1382B32B931B1392331B93C
:1016D0000000149A0C98049BFECF000000001498A0
:1016E0000C9A322F330F26FF83CE22B1282B22B93A
:1016F00021B1292321B90000149A0C98049BFECF34
:101700000000000014980C9A36FF84CE22B1282BDA
:1017100022B921B1292321B9000000000000149A48
:101720000C98049BFECF0000000084CE22B1282B31
:1017300022B921B1292321B9000000000000149A28
:101740000C98049BFECF0000000029CF22B1282B6B
:1017500022B921B1292321B90000149A0C98049BC5
:10176000FECF0000000007CF32B1382B32B931B1C3
:10177000392331B90000149A0C98049BFECF000065
:101780000000E5CE22B1282B22B921B1292321B9AD
:101790000000149A0C98049BFECF00000000C3CEFA
:1017A00032B1382B32B931B1392331B90000149A32
:1017B0000C98049BFECF00000000A1CE22B1282B84
:1017C00022B921B1292321B90000149A0C98049B55
:1017D000FECF000000007FCE32B1382B32B931B1DC
:1017E000392331B90000149A0C98049BFECF0000F5
:1017F00000005DCE22B1282B22B921B1292321B9C5
:101800000000149A0C98049BFECF000000003BCE11
:10181000DF93CF93CDB7DEB728970FB6F894DEBF2E
:101820000FBECDBFFA01F89492B1982B92B921B1B5
:10183000982F9095292321B900000000149A0C9844
:10184000049BFECF000000000000000022B129230D
:1018500022B921B1282B21B90000000014980C9A5C
:1018600000000000000022B1282B22B921B1292359
:1018700021B900000000149A0C98049BFECF0000D0
:1018800000000000000014980C9A00000000000006
:1018900022B1292322B921B1282B21B9000000004F
:1018A000149A0C98049BFECF00000000000000007A
:1018B00014980C9A00000000000022B1292322B9DC
:1018C00021B1282B21B900000000149A0C98049B28
:1018D000FECF000000000000000014980C9A0000E9
:1018E0000000000022B1282B22B921B1292321B9FF
:1018F00000000000149A0C98049BFECF000000002A
:101900000000000014980C9A00000000000022B1B2
:10191000292322B921B1282B21B900000000149AF3
:101920000C98049BFECF00000000000000001498FB
:101930000C9A00000000000022B1292322B921B135
:10194000282B21B900000000149A0C98049BFECFAC
:10195000000000000000000014980C9A0000000035
:10196000000022B1292322B921B1282B21B900007E
:101970000000149A0C98049BFECF000000000000A9
:10198000000014980C9A00000000000022B12923E6
:1019900022B921B1282B21B900000000149A0C981B
:1019A000049BFECF000000000000000014980C9A79
:1019B00000000000000022B1282B22B921B1292308
:1019C00021B900000000149A0C98049BFECF00007F
:1019D00000000000000014980C9A0000000067FD51
:1019E0000CC322B1292322B921B1282B21B9149A81
:1019F0000C98049BFECF000000000000000014982B
:101A00000C9A262F220F66FD0BC332B1392332B94F
:101A100031B1382B31B9149A0C98049BFECF0000D9
:101A200000000000000014980C9A322F330F26FD9E
:101A30000AC322B1292322B921B1282B21B9149A32
:101A40000C98049BFECF00000000000000001498DA
:101A50000C9A232F220F36FD09C332B1392332B934
:101A600031B1382B31B9149A0C98049BFECF000089
:101A700000000000000014980C9A322F330F26FD4E
:101A800008C322B1292322B921B1282B21B9149AE4
:101A90000C98049BFECF000000000000000014988A
:101AA0000C9A232F220F36FD07C332B1392332B9E6
:101AB00031B1382B31B9149A0C98049BFECF000039
:101AC00000000000000014980C9A322F330F26FDFE
:101AD00006C322B1292322B921B1282B21B9149A96
:101AE0000C98049BFECF000000000000000014983A
:101AF0000C9A36FD05C322B1292322B921B1282B26
:101B000021B900000000149A0C98049BFECF00003D
:101B100000000000000014980C9A22B1282B22B972
:101B200021B1292321B900000000000000000000BD
:101B3000149A0C98049BFECF0000000000000000E7
:101B400014980C9A00000000000022B1282B22B942
:101B500021B1292321B900000000149A0C98049B9C
:101B6000FECF22B1292322B921B1282B21B9149803
:101B70000C9A00000000000022B1282B22B921B1EC
:101B8000292321B900000000149A0C98049BFECF71
:101B9000000000000000000014980C9A00000000F3
:101BA000000022B1292322B921B1282B21B900003C
:101BB0000000149A0C98049BFECF00000000000067
:101BC000000014980C9A00000000000022B12923A4
:101BD00022B921B1282B21B900000000149A0C98D9
:101BE000049BFECF000000000000000014980C9A37
:101BF00000000000000022B1282B22B921B12923C6
:101C000021B900000000149A0C98049BFECF00003C
:101C100000000000000014980C9A00000000000072
:101C200022B1292322B921B1282B21B900000000BB
:101C3000149A0C98049BFECF0000000000000000E6
:101C400014980C9A00000000000022B1292322B948
:101C500021B1282B21B900000000149A0C98049B94
:101C6000FECF000000000000000014980C9A000055
:101C70000000000022B1292322B921B1282B21B96B
:101C800000000000149A0C98049BFECF0000000096
:101C90000000000014980C9A00000000000022B11F
:101CA000282B22B921B1292321B900000000149A60
:101CB0000C98049BFECF0000000000000000149868
:101CC0000C9A00000000000022B1282B22B921B19B
:101CD000292321B900000000149A0C98049BFECF20
:101CE000000000000000000014980C9A00000000A2
:101CF00000000000000000000000000000000000E4
:101D00000000149A0C98049BFECF20B1282328874A
:101D100014980C9A00000000000000000000000071
:101D200000000000000000000000149A0C98049BC2
:101D3000FECF20B128232F8314980C9A00000000B6
:101D40000000000000000000000000000000000093
:101D50000000149A0C98049BFECF20B128232E83F8
:101D600014980C9A00000000000000000000000021
:101D700000000000000000000000149A0C98049B72
:101D8000FECF20B128232D8314980C9A0000000068
:101D90000000000000000000000000000000000043
:101DA0000000149A0C98049BFECF20B128232C83AA
:101DB00014980C9A000000000000000000000000D1
:101DC00000000000000000000000149A0C98049B22
:101DD000FECF20B128232B8314980C9A000000001A
:101DE00000000000000000000000000000000000F3
:101DF0000000149A0C98049BFECF20B128232A835C
:101E000014980C9A00000000000000000000000080
:101E100000000000000000000000149A0C98049BD1
:101E2000FECF20B12823298314980C9A22B1282BA5
:101E300022B921B1292321B90000000000000000CF
:101E40000000149A0C98049BFECF000000000000D4
:101E5000000014980C9A00000000000022B1292311
:101E600022B921B1282B21B900000000149A0C9846
:101E7000049BFECF000000000000000022B1282BD0
:101E800022B981B1892381B9000000001182128238
:101E900013822885822F847086958695922F98705C
:101EA000969596959695990F880F522F52704F815F
:101EB0002170220F342F3170232B342F327036953E
:101EC000352B542F547056955695852B4870469552
:101ED00046954695942B990F880F330F220F4E810C
:101EE000542F5170252B542F52705695352B542F4B
:101EF000547056955695852B48704695469546954F
:101F0000942B990F880F330F220F4D81542F51704E
:101F1000252B542F52705695352B542F54705695AF
:101F20005695852B4870469546954695942B990F66
:101F3000880F330F220F4C81542F5170252B542FB3
:101F400052705695352B542F547056955695852BB7
:101F50004870469546954695942B990F880F330FF8
:101F6000220F4B81542F5170252B542F52705695B0
:101F7000352B542F547056955695852B48704695A1
:101F800046954695942B990F880F330F220F4A815F
:101F9000542F5170252B542F52705695352B542F9A
:101FA000547056955695852B48704695469546959E
:101FB000942B990F880F330F220F4981542F5270A1
:101FC000642F6470742F7870769576957695972B3C
:101FD000908366956695862B81835695352B328343
:101FE0004170242B2383789428960FB6F894DEBF93
:101FF0000FBECDBFCF91DF91089522B1282B22B91A
:1020000021B1292321B90000149A0C98049BFECF1A
:102010000000000014980C9A262F220F66FFF5CCC2
:1020200032B1382B32B931B1392331B90000149AA9
:102030000C98049BFECF0000000014980C9A322FDD
:10204000330F26FFF6CC22B1282B22B921B1292348
:1020500021B90000149A0C98049BFECF00000000E8
:1020600014980C9A232F220F36FFF7CC32B1382B5D
:1020700032B931B1392331B90000149A0C98049B5C
:10208000FECF0000000014980C9A322F330F26FF69
:10209000F8CC22B1282B22B921B1292321B9000083
:1020A000149A0C98049BFECF0000000014980C9A20
:1020B000232F220F36FFF9CC32B1382B32B931B190
:1020C000392331B90000149A0C98049BFECF00000C
:1020D000000014980C9A322F330F26FFFACC22B14D
:1020E000282B22B921B1292321B90000149A0C9878
:1020F000049BFECF0000000014980C9A36FFFBCC26
:1021000022B1282B22B921B1292321B900000000D6
:102110000000149A0C98049BFECF00000000FBCC3A
:10212000CF92DF92EF92FF920F931F93DF93CF93A3
:10213000CDB7DEB760970FB6F894DEBF0FBECDBF48
:10214000DB01F89492B1982B92B921B1982F909518
:10215000292321B900000000149A0C98049BFECF9B
:10216000000000000000000022B1292322B921B1A3
:10217000282B21B90000000014980C9A00000000E0
:10218000000022B1282B22B921B1292321B9000056
:102190000000149A0C98049BFECF00000000000081
:1021A000000014980C9A00000000000022B12923BE
:1021B00022B921B1282B21B900000000149A0C98F3
:1021C000049BFECF000000000000000014980C9A51
:1021D00000000000000022B1292322B921B1282BE0
:1021E00021B900000000149A0C98049BFECF000057
:1021F00000000000000014980C9A0000000000008D
:1022000022B1282B22B921B1292321B900000000D5
:10221000149A0C98049BFECF000000000000000000
:1022200014980C9A00000000000022B1292322B962
:1022300021B1282B21B900000000149A0C98049BAE
:10224000FECF000000000000000014980C9A00006F
:102250000000000022B1292322B921B1282B21B985
:1022600000000000149A0C98049BFECF00000000B0
:102270000000000014980C9A00000000000022B139
:10228000292322B921B1282B21B900000000149A7A
:102290000C98049BFECF0000000000000000149882
:1022A0000C9A00000000000022B1292322B921B1BC
:1022B000282B21B900000000149A0C98049BFECF33
:1022C000000000000000000014980C9A00000000BC
:1022D000000022B1282B22B921B1292321B9000005
:1022E0000000149A0C98049BFECF00000000000030
:1022F000000014980C9A00000000000022B129236D
:1023000022B921B1282B21B900000000149A0C98A1
:10231000049BFECF000000000000000014980C9AFF
:1023200000000000000022B1282B22B921B129238E
:1023300021B900000000149A0C98049BFECF000005
:1023400000000000000014980C9A0000000000003B
:1023500022B1292322B921B1282B21B90000000084
:10236000149A0C98049BFECF0000000000000000AF
:1023700014980C9A00000000000022B1282B22B90A
:1023800021B1292321B900000000149A0C98049B64
:10239000FECF000000000000000014980C9A00001E
:1023A0000000000022B1292322B921B1282B21B934
:1023B00000000000149A0C98049BFECF000000005F
:1023C0000000000014980C9A00000000000022B1E8
:1023D000292322B921B1282B21B900000000149A29
:1023E0000C98049BFECF0000000000000000149831
:1023F0000C9A00000000000022B1292322B921B16B
:10240000282B21B900000000149A0C98049BFECFE1
:10241000000000000000000014980C9A000000006A
:10242000000022B1292322B921B1282B21B90000B3
:102430000000149A0C98049BFECF000000000000DE
:10244000000014980C9A00000000000022B1282B14
:1024500022B921B1292321B900000000149A0C9857
:10246000049BFECF000000000000000014980C9AAE
:1024700000000000000022B1282B22B921B129233D
:1024800021B900000000149A0C98049BFECF22B1E1
:10249000292322B921B1282B21B914980C9A0000C4
:1024A0000000000022B1282B22B921B1292321B933
:1024B00000000000149A0C98049BFECF000000005E
:1024C0000000000014980C9A00000000000022B1E7
:1024D000292322B921B1282B21B900000000149A28
:1024E0000C98049BFECF0000000000000000149830
:1024F0000C9A00000000000022B1292322B921B16A
:10250000282B21B900000000149A0C98049BFECFE0
:10251000000000000000000014980C9A0000000069
:10252000000022B1282B22B921B1292321B90000B2
:102530000000149A0C98049BFECF000000000000DD
:10254000000014980C9A00000000000022B129231A
:1025500022B921B1282B21B900000000149A0C984F
:10256000049BFECF000000000000000014980C9AAD
:1025700000000000000022B1292322B921B1282B3C
:1025800021B900000000149A0C98049BFECF0000B3
:1025900000000000000014980C9A000000000000E9
:1025A00022B1292322B921B1282B21B90000000032
:1025B000149A0C98049BFECF00000000000000005D
:1025C00014980C9A00000000000022B1282B22B9B8
:1025D00021B1292321B900000000149A0C98049B12
:1025E000FECF000000000000000014980C9A0000CC
:1025F0000000000022B1282B22B921B1292321B9E2
:1026000000000000149A0C98049BFECF000000000C
:102610000000000014980C9A000000000000000068
:102620000000000000000000000000000000149AFC
:102630000C98049BFECF20B12823288714980C9A6D
:10264000000000000000000000000000000000008A
:10265000000000000000149A0C98049BFECF20B1EB
:1026600028232F8314980C9A00000000000000001B
:102670000000000000000000000000000000149AAC
:102680000C98049BFECF20B128232E8314980C9A1B
:10269000000000000000000000000000000000003A
:1026A000000000000000149A0C98049BFECF20B19B
:1026B00028232D8314980C9A0000000000000000CD
:1026C0000000000000000000000000000000149A5C
:1026D0000C98049BFECF20B128232C8314980C9ACD
:1026E00000000000000000000000000000000000EA
:1026F000000000000000149A0C98049BFECF20B14B
:1027000028232B8314980C9A00000000000000007E
:102710000000000000000000000000000000149A0B
:102720000C98049BFECF20B128232A8314980C9A7E
:102730000000000000000000000000000000000099
:10274000000000000000149A0C98049BFECF20B1FA
:102750002823298314980C9A00000000000022B15D
:10276000292322B921B1282B21B900000000149A95
:102770000C98049BFECF000000000000000014989D
:102780000C9A00000000000022B1282B22B921B1D0
:10279000292321B900000000149A0C98049BFECF55
:1027A00020B12823288B14980C9A00000000000008
:1027B0000000000000000000000000000000000019
:1027C000149A0C98049BFECF20B128232F871498CD
:1027D0000C9A000000000000000000000000000053
:1027E0000000000000000000149A0C98049BFECF2B
:1027F00020B128232E8714980C9A000000000000B6
:1028000000000000000000000000000000000000C8
:10281000149A0C98049BFECF20B128232D8714987E
:102820000C9A000000000000000000000000000002
:102830000000000000000000149A0C98049BFECFDA
:1028400020B128232C8714980C9A00000000000067
:102850000000000000000000000000000000000078
:10286000149A0C98049BFECF20B128232B87149830
:102870000C9A0000000000000000000000000000B2
:102880000000000000000000149A0C98049BFECF8A
:1028900020B128232A8714980C9A00000000000019
:1028A0000000000000000000000000000000000028
:1028B000149A0C98049BFECF20B1282329871498E2
:1028C0000C9A22B1282B22B921B1292321B9000069
:1028D0000000000000000000149A0C98049BFECF3A
:1028E000000000000000000014980C9A0000000096
:1028F000000022B1292322B921B1282B21B90000DF
:102900000000149A0C98049BFECF00000000000009
:10291000000022B1282B22B981B1892381B900009E
:10292000000013961C921E92129715961C921E92EE
:10293000149717961C921E9216978889E82FE170BB
:10294000F0E0482F4270469550E0282F24702695DD
:10295000269530E08870EE0FFF1F440F551F220FA1
:10296000331F6F85062F017010E0E02BF12B062F2F
:102970000270069510E0402B512B062F047006952F
:10298000069510E0202B312B6870869586958695EC
:1029900090E0880F991F66956695669570E0862B86
:1029A000972BEE0FFF1F440F551F220F331F880F69
:1029B000991F6E85062F017010E0E02BF12B062F7A
:1029C0000270069510E0402B512B062F04700695DF
:1029D000069510E0202B312B6870669566956695FC
:1029E00070E0862B972BEE0FFF1F440F551F220F11
:1029F000331F880F991F6D85062F017010E0E02BA3
:102A0000F12B062F0270069510E0402B512B062F5C
:102A100004700695069510E0202B312B68706695A2
:102A20006695669570E0862B972BEE0FFF1F440F7F
:102A3000551F220F331F880F991F6C85062F0170B9
:102A400010E0E02BF12B062F0270069510E0402BD2
:102A5000512B062F04700695069510E0202B312B84
:102A6000687066956695669570E0862B972BEE0FDD
:102A7000FF1F440F551F220F331F880F991F6B85AF
:102A8000062F017010E0E02BF12B062F0270069547
:102A900010E0402B512B062F04700695069510E090
:102AA000202B312B687066956695669570E0862BB5
:102AB000972BEE0FFF1F440F551F220F331F880F58
:102AC000991F6A85062F017010E0E02BF12B062F6D
:102AD0000270069510E0402B512B062F04700695CE
:102AE000069510E0202B312B6870669566956695EB
:102AF00070E0862B972BEE0FFF1F440F551F220F00
:102B0000331F880F991F6985062F017010E0E02B95
:102B1000F12B062F0270069510E0402B512B062F4B
:102B200004700695069510E0202B312B6870669591
:102B30006695669570E0862B972BEE0FFF1F440F6E
:102B4000551F220F331F880F991F6885062F0170AC
:102B500010E0E02BF12B062F0270069510E0402BC1
:102B6000512B062F04700695069510E0202B312B73
:102B7000687066956695669570E0862B972BEE0FCC
:102B8000FF1F440F551F220F331F880F991F6F819E
:102B9000062F017010E0E02BF12B062F0270069536
:102BA00010E0402B512B062F04700695069510E07F
:102BB000202B312B687066956695669570E0862BA4
:102BC000972BEE0FFF1F440F551F220F331F880F47
:102BD000991F6E81062F017010E0E02BF12B062F5C
:102BE0000270069510E0402B512B062F04700695BD
:102BF000069510E0202B312B6870669566956695DA
:102C000070E0862B972BEE0FFF1F440F551F220FEE
:102C1000331F880F991F6D81062F017010E0E02B84
:102C2000F12B062F0270069510E0402B512B062F3A
:102C300004700695069510E0202B312B6870669580
:102C40006695669570E0862B972BEE0FFF1F440F5D
:102C5000551F220F331F880F991F6C81062F01709B
:102C600010E0E02BF12B062F0270069510E0402BB0
:102C7000512B062F04700695069510E0202B312B62
:102C8000687066956695669570E0862B972BEE0FBB
:102C9000FF1F440F551F220F331F880F991F6B8191
:102CA000062F017010E0E02BF12B062F0270069525
:102CB00010E0402B512B062F04700695069510E06E
:102CC000202B312B687066956695669570E0862B93
:102CD000972BEE0FFF1F440F551F220F331F880F36
:102CE000991F6A81062F017010E0E02BF12B062F4F
:102CF0000270069510E0402B512B062F04700695AC
:102D0000069510E0202B312B6870669566956695C8
:102D100070E0862B972BEE0FFF1F440F551F220FDD
:102D2000331F880F991F7981172F1270072F047096
:102D3000672F68707170C72EDD24EC29FD29169568
:102D4000E12EFF244E295F290695069510E0202BE1
:102D5000312B66956695669570E0862B972BF595D9
:102D6000E7951196FC93EE935595479513965C93D2
:102D70004E9312973595279515963C932E9314975D
:102D80009595879517969C938E9316977894609651
:102D90000FB6F894DEBF0FBECDBFCF91DF911F916C
:102DA0000F91FF90EF90DF90CF900895FF920F93D7
:102DB0001F93CF93DF93F82E823009F475C08330D0
:102DC00008F467C0843009F46CC0883009F063C02F
:102DD00003E010E0E801CC0FDD1F9801220F331F44
:102DE000220F331F220F331FC20FD31FC00FD11F5B
:102DF000C95EDE4F8F2D60E34A810E94A2088F2DAD
:102E000060E44B810E94A2088F2D62E44C810E94F5
:102E1000A2088F2D63E44D810E94A2088F2D62E5E8
:102E20004E810E94A2088F2D63E54F810E94A20867
:102E30008F2D64E548850E94A2088F2D65E54985A0
:102E40000E94A2088F2D66E54A850E94A2080F5FA6
:102E50001F4FF801EE0FFF1F9801220F331F220FA3
:102E6000331F220F331FE20FF31FE00FF11FE95E44
:102E7000FE4F8F2D67E540810E94A2088F2D60E7ED
:102E80004C850E94A208DF91CF911F910F91FF9076
:102E90000895813061F0DF91CF911F910F91FF90E4
:102EA000089502E010E096CF01E010E093CF00E03B
:102EB00010E090CF0E94901008952F923F924F9271
:102EC0005F926F927F928F929F92AF92BF92CF92BA
:102ED000DF92EF92FF920F931F93DF93CF93CDB7C3
:102EE000DEB72D970FB6F894DEBF0FBECDBFB82E5C
:102EF0003E010894611C711C88E0F30111928A95CF
:102F0000E9F7FB2DF23009F400C1F33008F4E0C01A
:102F10002B2D243009F4F7C0283009F0DBC003E082
:102F20008B2D66E540E00E94A208802F90E09D87EF
:102F30008C87880F991F9B878A87EC85FD85EE0F0C
:102F4000FF1FEE0FFF1FEE0FFF1FE80FF91F2C856D
:102F50003D85E20FF31FE95EFE4F12868FE097E298
:102F60000197F1F700C0000004E610E0CC24DD2456
:102F700076018A849B84860C971C40911D014E7FAC
:102F800040688B2D62E50E94A208EBEDF5E03197D9
:102F9000F1F700C000008B2DB3010E949010F401E6
:102FA00080819181AA2797FDA095BA2FC80ED91EBE
:102FB000EA1EFB1E1182108201501040F1F6C7017B
:102FC000B60124E630E040E050E00E942C1DC9012B
:102FD000F401318320832051354FF5E1213E3F0735
:102FE00008F468C0181619060CF093C0AA248A8445
:102FF0009B84860C971C74E6272E312C412C512C77
:10300000A3942A2D206429878B2D66E5422F0E94E8
:10301000A2088FE097E20197F1F700C00000F401E9
:103020001182108204E610E0CC24DD247601409168
:103030001D014E7F40688B2D62E50E94A2088BED3A
:1030400095E00197F1F700C000008B2DB3010E94BD
:103050009010F40180819181AA2797FDA095BA2F45
:10306000C80ED91EEA1EFB1E1182108201501040AC
:10307000F1F6C701B601A20191010E942C1DC90100
:10308000F40131832083FA2DFF3321F12AE0813FBF
:1030900092070CF0B5CF8BE090E02C853D85289F02
:1030A000F001299FF00D389FF00D1124E95EFE4FCD
:1030B00039853287AA85BB85AA5ABE4FEA85FB852A
:1030C000E60DF71D8081918111969C938E9302C02D
:1030D000F130E9F02D960FB6F894DEBF0FBECDBFEC
:1030E000CF91DF911F910F91FF90EF90DF90CF90E4
:1030F000BF90AF909F908F907F906F905F904F9018
:103100003F902F90089502E00BCF01E009CF00E03F
:1031100007CFAA248A849B84860C971C64E6262EFB
:10312000312C412C512CA3948B2D66E54A2D0E9405
:10313000A2088FE097E20197F1F700C00000F401C8
:103140001182108204E610E0CC24DD247601409147
:103150001D014E7F40688B2D62E50E94A2088BED19
:1031600095E00197F1F700C000008B2DB3010E949C
:103170009010F40180819181AA2797FDA095BA2F24
:10318000C80ED91EEA1EFB1E11821082015010408B
:10319000F1F6C701B601A20191010E942C1DC901DF
:1031A000F40131832083FA2DFF3309F493CF25EF07
:1031B000803192070CF4B7CF8BE090E02C853D85F1
:1031C000289FF001299FF00D389FF00D1124E95E32
:1031D000FE4FA2866FCF40911D014E7F406862E591
:1031E0000E94A20808951F93182F5F9A60E340E0A1
:1031F0000E94A208812F63E540E00E94A2081F916F
:1032000008951F93CF93DF93182F843091F1853069
:1032100040F0883089F18F3049F1DF91CF911F91D3
:103220000895813019F18230C1F721E030E0E901E1
:10323000CC0FDD1FA901440F551F440F551F440F2C
:10324000551FC40FD51FC20FD31FC95EDE4F812F7C
:1032500060E34A810E94A208812F63E54F810E94AA
:10326000A2085F98DF91CF911F91089520E030E090
:10327000DECF22E030E0DBCF23E030E0D8CFFF929A
:103280000F931F93DF93CF930F92CDB7DEB7182F15
:10329000F62E042F198266E5AE014F5F5F4F0E9444
:1032A000080C4F2D4295440F440F407C8981807853
:1032B000482B402B4983812F66E50E94A2080F907E
:1032C000CF91DF911F910F91FF9008958AE4809331
:1032D000800181E098E89093820180938101809140
:1032E0007E0190917F0180938301E0910401F09130
:1032F000050186A997A9909385018093840124A94B
:1033000035A930938701209386019093890180939A
:10331000880182A993A990938B0180938A01E091FF
:103320000201F091030180917E0190917F0191AFA4
:1033300080AF019690937F0180937E01809111016F
:103340009091120193AF82AF8091790084AF0E9477
:10335000CC0008951092800089E0809381006091F4
:1033600054017091550180E090E00E947B1C9B010C
:10337000AC0160E876E988E19BE40E94E71B0E94CB
:103380004F1C709389006093880010928500109202
:10339000840010928B0010928A0010928700109285
:1033A000860082E080936F0086BB089587EA809351
:1033B0007C0085EE80937A0010927B00089585B79B
:1033C0008F7E85BF1092640080E880936100109228
:1033D000610011B89FE192B991EB94B990E595B96C
:1033E00090EC97B988B980E98AB98BB9549A5C9AFC
:1033F00080910401909105010E9462048091520124
:1034000090915301009701F181E0809301010E94A6
:10341000800382E880BF0E94AA190E94D6190E94E8
:10342000050287EA91E60197F1F700C0000081E00C
:103430000E94D61682E00E94D61684E00E94D6161C
:1034400088E00E94D616089510920101E0CFF8940A
:10345000E1E6F0E080E8808383E080838EEF809374
:1034600064008AE180BF83B7817F83BF83B78160B7
:1034700083BF7894889583B78E7F83BF08954F92DA
:103480005F926F927F928F929F92AF92BF92CF92F4
:10349000DF92EF92FF920F931F93DF93CF93CDB7FD
:1034A000DEB728970FB6F894DEBF0FBECDBFF894F5
:1034B0000E94DF195E010894A11CB11C88E0D501AF
:1034C0001D928A95E9F71092160112E0FF24F394F9
:1034D00004E096E0892E85E0682E712CB5E09B2EE5
:1034E000A7E0DA2EF0E85F2EE3E04E2E79E0E72E3B
:1034F00080911601833079F0843020F5813009F411
:1035000059C0823080F14D9B92C0F092160180919B
:103510001601833089F7F8940E94F5038FE00E942A
:10352000011910920F0110920B0110920C011092D0
:103530000D0110920E01E092810016BB7894009369
:103540001601D6CF853079F08530D0F48091100106
:10355000882309F082C080910101813009F4F2C012
:1035600000931601C5CF1092810016BB8FE00E9418
:10357000F3180E94D40310927A000E94B400C5CFC1
:10358000863079F0873009F0B3CF8FE798E3A1E078
:1035900081509040A040E1F700C000000E94420628
:1035A000DFCF0E94661980910A02882341F0D092F1
:1035B00016019ECF0E94271A1093160199CF4D999C
:1035C00033C02091540130915501409152015091E6
:1035D00053010E94091D9B01AC0180910B01909148
:1035E0000C01A0910D01B0910E01281739074A076F
:1035F0005B0778F480910101882359F010920B0148
:1036000010920C0110920D0110920E019092160171
:103610006FCF809179008C3A38F080911301882324
:1036200009F49ECF109213019092160161CF10926F
:1036300064000E94D619E3ECF9E03197F1F700C07D
:103640000000809179008E3A08F45FCF50926100BB
:1036500010926100409216014BCF109210018091A0
:103660000B0190910C01A0910D01B0910E010196FA
:10367000A11DB11D80930B0190930C01A0930D012E
:10368000B0930E01809114019091150101969093D1
:103690001501809314015C988FE00E94EB188FE075
:1036A000B5010E945A175C9AE0910201F091030162
:1036B000C0900F014C2D50E08091040190910501C4
:1036C000DC01DF9629813A816D917C91261B370BB5
:1036D000440F551F440F551F440F551FE40FF51F8E
:1036E00031832083DC01AF5BBF4F2B813C814D9147
:1036F0005C91241B350B33832283DC01AD5BBF4F10
:103700002D813E814D915C91241B350B35832483A3
:103710008B5B9F4F2F813885DC018D919C91119798
:10372000281B390B378326838C2D8F5F80930F01E5
:103730008330A1F0873008F40ECF10920F018092F1
:103740001601D6CE00B605FC0BCF10920B011092DD
:103750000C0110920D0110920E0102CF80915401C4
:1037600090915501B3010E94181D80911401909110
:1037700015018617970708F4EECE0E941604909361
:103780001201809311011092150110921401809181
:103790000F01D0CF1F920F920FB60F9211248F936B
:1037A00081E0809310018F910F900FBE0F901F90BA
:1037B00018951F920F920FB60F9211248F9382E1EA
:1037C00080BF8F910F900FBE0F901F9018950CD057
:1037D000E6C0DED040F0D5D030F021F45F3F19F0E4
:1037E000C7C0511110C1CAC0EBD098F39923C9F3D7
:1037F0005523B1F3951B550BBB27AA2762177307F7
:10380000840738F09F5F5F4F220F331F441FAA1FAA
:10381000A9F333D00E2E3AF0E0E830D0915050406A
:10382000E695001CCAF729D0FE2F27D0660F771F18
:10383000881FBB1F261737074807AB07B0E809F0FA
:10384000BB0B802DBF01FF2793585F4F2AF09E3F8F
:10385000510568F08DC0D7C05F3FECF3983EDCF3B4
:10386000869577956795B795F7959F5FC9F7880F08
:10387000911D9695879597F90895E1E0660F771F5A
:10388000881FBB1F621773078407BA0720F0621BEB
:10389000730B840BBA0BEE1F88F7E095089598D050
:1038A00088F09F5790F0B92F9927B751A0F0D1F029
:1038B000660F771F881F991F1AF0BA95C9F712C0B3
:1038C000B13081F09FD0B1E008959CC0672F782F70
:1038D0008827B85F39F0B93FCCF38695779567951F
:1038E000B395D9F73EF490958095709561957F4F8B
:1038F0008F4F9F4F0895E89409C097FB3EF4909531
:103900008095709561957F4F8F4F9F4F9923A9F0B8
:10391000F92F96E9BB279395F69587957795679547
:10392000B795F111F8CFFAF4BB0F11F460FF1BC08B
:103930006F5F7F4F8F4F9F4F16C0882311F096E91E
:1039400011C0772321F09EE8872F762F05C06623CC
:1039500071F096E8862F70E060E02AF09A95660F85
:10396000771F881FDAF7880F9695879597F908953E
:1039700097F99F6780E870E060E008959FEF80EC22
:10398000089500240A9416161706180609060895C5
:1039900000240A9412161306140605060895092E2B
:1039A0000394000C11F4882352F0BB0F40F4BF2B9A
:1039B00011F460FF04C06F5F7F4F8F4F9F4F0895DA
:1039C00057FD9058440F551F59F05F3F71F04795D0
:1039D000880F97FB991F61F09F3F79F087950895B5
:1039E000121613061406551FF2CF4695F1DF08C0D4
:1039F000161617061806991FF1CF869571056105F1
:103A000008940895E894BB2766277727CB0197F998
:103A10000895539FC001429FB001529F700D811DB8
:103A20001124911D349F700D811D1124911D089545
:103A3000AA1BBB1B51E107C0AA1FBB1FA617B707D4
:103A400010F0A61BB70B881F991F5A95A9F78095F0
:103A50009095BC01CD01089597FB092E05260ED047
:103A600057FD04D014D00AD0001C38F4509540956E
:103A7000309521953F4F4F4F5F4F0895F6F7909542
:103A80008095709561957F4F8F4F9F4F0895A1E26C
:103A90001A2EAA1BBB1BFD010DC0AA1FBB1FEE1FC8
:103AA000FF1FA217B307E407F50720F0A21BB30B13
:103AB000E40BF50B661F771F881F991F1A9469F78F
:103AC00060957095809590959B01AC01BD01CF01EB
:103AD0000895F999FECF92BD81BDF89A992780B5D6
:103AE0000895262FF999FECF1FBA92BD81BD20BD42
:103AF0000FB6F894FA9AF99A0FBE01960895F894C1
:023B0000FFCFF5
:063B020001018C01170116
:10700000DF93CF93CDB7DEB70E94D73CCF91DF910E
:027010000895E1
:10710000DF93CF9300D000D0CDB7DEB78C8380E87B
:1071100091E09A838983F89488E290E028E230E055
:10712000F90120812F77FC0120838EE490E020E696
:10713000FC0120838DE490E0FC0180818823D4F75A
:1071400089819A81FC0180818B8389819A81019652
:107150009A8389838C8181508C838DE490E0FC013B
:1071600080818823D4F78EE490E02B81FC0120837A
:107170008C81882329F78DE490E0FC0180818823AD
:10718000D4F788E290E028E230E0F901208120681D
:10719000FC0120830F900F900F900F90CF91DF9103
:1071A0000895DF93CF93CDB7DEB78DE390E0FC0178
:1071B000108288E690E0FC01108284E690E02BEFDC
:1071C000FC01208385E590E025E530E0F901208190
:1071D0002F7EFC01208387E290E027E230E0F90176
:1071E00020812068FC01208384E290E024E230E0EA
:1071F000F90120812068FC01208387E290E027E2EA
:1072000030E0F90120812064FC01208384E290E0D9
:1072100024E230E0F90120812062FC01208384E235
:1072200090E024E230E0F90120812160FC0120831C
:1072300084E290E024E230E0F90120812F7BFC0120
:10724000208384E290E024E230E0F9012081206193
:10725000FC01208385E290E025E230E0F901208105
:107260002061FC0120838CE490E020E5FC01208378
:107270008DE490E021E0FC0120838CE490E02CE49C
:1072800030E0F90120812C7FFC01208388E290E02E
:1072900028E230E0F90120812068FC012083CF91B1
:1072A000DF910895DF93CF93CDB7DEB728970FB660
:1072B000F894DEBF0FBECDBF9E838D8378876F832A
:1072C0008FE390E0FC018081882F90E082709070C5
:1072D0000097B1F78D819E819695982F8827979575
:1072E000879523E0FC0120935700E89587E590E01F
:1072F000FC018081882F90E0817090708823B1F725
:107300001A8219823AC08F819885FC018081882F6A
:1073100090E09C838B838F819885019698878F83DB
:107320008F819885FC018081882F90E0982F882795
:107330002B813C81820F931F9C838B838F81988547
:10734000019698878F838D819E819C013695322F7F
:1073500022273795279589819A81820F931F41E0D3
:107360002B813C81FC01090140935700E8951124D1
:1073700089819A8102969A83898389819A8180384A
:10738000910508F4C0CF8D819E819695982F88270E
:107390009795879525E0FC0120935700E89587E5B0
:1073A00090E0FC018081882F90E0817090708823AC
:1073B000B1F781E180935700E89528960FB6F894CD
:1073C000DEBF0FBECDBFCF91DF910895DF93CF9386
:1073D000CDB7DEB728970FB6F894DEBF0FBECDBF8E
:1073E0009E838D8378876F831C821B821A82198209
:1073F00025C08D819E819C013695322F222737959D
:10740000279589819A81822B932B9C838B832B8157
:107410008B819C81892F9927E22FF82FC895202DE9
:107420008F819885FC0120838F81988501969887AC
:107430008F8389819A8101969A83898389819A8130
:1074400080389105B0F228960FB6F894DEBF0FBED3
:10745000CDBFCF91DF910895DF93CF9300D0CDB70B
:10746000DEB789836A838981806C898388E290E0B2
:1074700028E230E0F90120812F77FC0120838EE49F
:1074800090E02981FC0120838DE490E0FC01808163
:107490008823D4F78EE490E02A81FC0120838DE4D8
:1074A00090E0FC0180818823D4F788E290E028E214
:1074B00030E0F90120812068FC0120830F900F90BB
:1074C000CF91DF910895DF93CF9300D0CDB7DEB792
:1074D0008A838A8180688A8388E290E028E230E0AB
:1074E000F90120812F77FC0120838EE490E02A812E
:1074F000FC0120838DE490E0FC0180818823D4F797
:107500008EE490E0FC0110828DE490E0FC0180812B
:107510008823D4F78EE490E0FC018081898388E29F
:1075200090E028E230E0F90120812068FC0120830E
:1075300089810F900F90CF91DF910895DF93CF93C2
:1075400000D000D0CDB7DEB79B838A836C8388E2FE
:1075500090E028E230E0F90120812F77FC012083C0
:107560008EE490E020E2FC0120838DE490E0FC01B9
:1075700080818823D4F78EE490E0FC0110828C8116
:107580008130F9F08DE490E0FC0180818823D4F70C
:107590008EE490E0FC01808189838EE490E0FC0120
:1075A00010828A819B812981FC0120838A819B81B1
:1075B00001969B838A838C8181508C838C8182305D
:1075C00008F78DE490E0FC0180818823D4F78EE4F5
:1075D00090E0FC0120818A819B81FC01208388E26C
:1075E00090E028E230E0F90120812068FC0120834E
:1075F0000F900F900F900F90CF91DF910895DF9330
:10760000CF9300D000D0CDB7DEB79B838A836C8345
:10761000F89488E290E028E230E0F90120812F77A9
:10762000FC0120838EE490E020E6FC0120838DE4C1
:1076300090E0FC0180818823D4F78A819B81FC0142
:10764000808189838A819B8101969B838A838C8137
:1076500081508C838DE490E0FC0180818823D4F7F5
:107660008EE490E02981FC0120838C81882329F716
:107670008DE490E0FC0180818823D4F788E290E0DB
:1076800028E230E0F90120812068FC0120830F907E
:107690000F900F900F90CF91DF910895DF93CF93CC
:1076A00000D000D0CDB7DEB78A836B834C838A814C
:1076B0000E94633A898399818B8189238983898197
:1076C000882F90E02C81222F30E0022E02C0959569
:1076D00087950A94E2F7898389810F900F900F9024
:1076E0000F90CF91DF910895DF93CF9300D000D01A
:1076F0000F92CDB7DEB78A836B834C832D838A814B
:107700000E94633A89838B81982F90958981892380
:1077100089838D81882F90E02C81222F30E002C058
:10772000880F991F2A95E2F78D839D818B8189238C
:107730008D839D818981892B8D838A816D810E94B2
:107740002C3A0F900F900F900F900F90CF91DF91E8
:107750000895DF93CF930F92CDB7DEB7898385E08D
:107760008093800182E098E8909382018093810168
:1077700080910102809383018981882F90E081307C
:10778000910521F08230910559F014C0809181015A
:1077900090918201806290938201809381010AC05E
:1077A0008091810190918201806190938201809308
:1077B00081010000809180010E94803882E06FE1A9
:1077C00040E029E00E94743B000081E06FE140E06E
:1077D0000E944E3B8930C9F785E290E025E230E017
:1077E000F90120812160FC012083000000000000DD
:1077F0000000000085E290E025E230E0F901208100
:107800002E7FFC01208300008FE068E043E00E94AF
:107810004E3B8823C9F30F90CF91DF910895DF93FA
:10782000CF9300D000D00F92CDB7DEB71A821B8263
:107830001C821D82198282E06FE140E026E00E94F6
:10784000743B8FE00E94633A000081E06FE140E00A
:107850000E944E3B8630C9F78FE00E94633A9981BF
:10786000892B89838981882F90E08C7290708C306D
:10787000910509F419828981882F90E080749070B5
:10788000009709F019828981882F90E08C7290709E
:107890008C32910509F7CE01029661E00E949E3A72
:1078A0002A818EEF91E0622F0E949E3A0F900F90F6
:1078B0000F900F900F90CF91DF910895DF93CF93AA
:1078C000CDB7DEB788E290E028E230E0F901208110
:1078D0002064FC01208385E290E025E230E0F9019C
:1078E00020812E7FFC01208382E06FE140E028E0D0
:1078F0000E94743B000081E06FE140E00E944E3B3B
:107900008830C9F78EE06FEF40E020E00E94743BC2
:1079100084E062E041E021E00E94743B8CE063E09F
:1079200040E020E00E94743B85E16FE040E020E011
:107930000E94743B85E160E847E020E00E94743BD0
:107940008CE060E847E021E00E94743B8DE068E055
:1079500043E020E00E94743B84E060E245E021E0E7
:107960000E94743B83E067E040E021E00E9418053C
:1079700084E06CE042E020E00E94743B82E26FEF22
:107980000E942C3A83E26FEF0E942C3A80E26FE073
:107990000E942C3A81E260EA0E942C3A88E06FE172
:1079A00040E022E10E94743BCF91DF910895DF9384
:1079B000CF93CDB7DEB7CA50D1400FB6F894DEBF33
:1079C0000FBECDBF198220E8CE010B96FC01322FED
:1079D00011923A95E9F71A82CE0185579F4F20E818
:1079E000FC01322F11923A95E9F71B821C821A860C
:1079F0001D821E821F8219861886F8940E94D13833
:107A00000E945E3C80E00E94A93B0E940F3C86E001
:107A100060E847E00E944E3B813009F0F1C0809160
:107A2000FF0190910002877090708130910529F0DC
:107A30008330910509F477C0E6C08091FE018D5036
:107A40008A87909101028E81981721F080E00E9430
:107A5000A93BD5C08E818F5F8E831B825BC08A81DC
:107A6000882F90E02B81222F30E0265F3D4FF901D7
:107A700040819E01255F3F4F820F931FFC01408391
:107A80008A818F5F8A838A81803809F040C01D8295
:107A90008981882F90E09E01255F3F4FB9010E94A8
:107AA00052398981882F90E09E0125573F4FB901B7
:107AB0000E94E6391F8221C08F81882F90E09E01AD
:107AC000255F3F4F820F931FFC0140818F81882FDC
:107AD00090E09E0125573F4F820F931FFC0180814C
:107AE000481731F481E08D838F818F5F8F8305C0CC
:107AF0001D8282E00E94A93B03C08F818823E4F6A7
:107B00008D81882329F289818F5F89831A828B81F5
:107B10008F5F8B839B818A85981708F4A0CF80E0C4
:107B20000E94A93B6CC080910A02843009F05CC0BD
:107B300080E00E94A93B52C08A81882F90E09E017C
:107B4000255F3F4F820F931F2FEFFC0120838A8117
:107B50008F5F8A838A81803809F040C01D828981C5
:107B6000882F90E09E01255F3F4FB9010E94523956
:107B70008981882F90E09E0125573F4FB9010E94CF
:107B8000E6391F8221C08F81882F90E09E01255FFA
:107B90003F4F820F931FFC0140818F81882F90E01F
:107BA0009E0125573F4F820F931FFC01808148178C
:107BB00031F481E08D838F818F5F8F8305C01D82BB
:107BC00082E00E94A93B03C08F818823E4F68D8167
:107BD000882329F289818F5F89831A828981803E77
:107BE00008F4AACF81E08C8380910A02803431F4BA
:107BF00080E00E94A93B19821A821E82000003C005
:107C000081E00E94A93B8C81882309F4FECE19866D
:107C1000188682E06FE140E026E00E94743B00009D
:107C200081E06FE140E00E944E3B8630C9F70BC017
:107C30008885998501969987888788859985F7E24F
:107C400080319F0740F48FE068E043E00E944E3BA4
:107C5000882371F301C000008885998527E280316F
:107C6000920718F480E00E94A93B8885998537E245
:107C70008031930760F20C940000C65FDE4F0FB6B0
:0E7C8000F894DEBF0FBECDBFCF91DF91089507
:00000001FF
