:100000000C943E000C9403050C945B000C945B0074
:100010000C945B000C945B000C945B000C945B00F4
:100020000C945B000C945B000C945B000C945B00E4
:100030000C942A050C94B6180C945B000C945B008D
:100040000C945B000C945B000C945B000C945B00C4
:100050000C945B000C945B000C945B000C94C51832
:100060000C945B000C945B000C945B000C945B00A4
:100070000C945B000C945B000C945B0011241FBE7D
:10008000CFEFD8E0DEBFCDBF11E0A0E0B1E0EAEDF8
:10009000F4E302C005900D92A630B107D9F712E043
:1000A000A6E0B1E001C01D92AF37B107E1F70E94B1
:1000B000EB160C946B1A0C94000081E06FE140E0A9
:1000C0000E942604883011F080E008958FE00E949D
:1000D000D90382E069E00E94C8038FE00E94D9033F
:1000E00080FFFBCF81E0089582E063E00E94C803B7
:1000F00082E08A95F1F700C0289A089582E068E0CE
:100100000E94C8030E945D0086E080937E0282E028
:1001100066E10E94C803089582E069E00E94C80376
:1001200081E080937E0210920001289A0000000076
:1001300000000000000028986091800180E891E0B4
:100140000E94100408950F931F93082F162F662303
:1001500009F443C08CE260EF44E023E00E943804DD
:100160008CE260EF44E028E00E943804023008F49A
:100170003DC08FE263E50E94C8038CE26EE041E07F
:1001800024E00E9438040E945D0082E069E10E9440
:10019000C80382E08A95F1F700C081E06FE140E09A
:1001A0000E942604893189F71092000181E0809332
:1001B0007E02289A0000000000000000000028983D
:1001C0006091800180E891E00E941004809100011C
:1001D0008823E1F31F910F9108958CE260EF44E0D2
:1001E00020E00E943804023008F0C3CF112359F0F8
:1001F0008CE26EE041E024E00E9438048FE260E08F
:100200000E94C803C0CF8CE26EE041E027E00E946C
:100210003804B9CF83E48093800183E298E8909317
:100220008201809381018FEF80938301E09104012B
:10023000F091050186A997A9909385018093840187
:1002400024A935A9309387012093860190938901D1
:100250008093880182A993A990938B0180938A014E
:10026000789480E061E00E94A30080E090E0FC01CF
:10027000E150FE4F1486019683379105C1F70E9425
:100280007E0008951F93182F40E058EF6FEF77E03E
:10029000082E04C076956795579547950A94D2F72E
:1002A000417050704115510539F488E06FE140E02C
:1002B0000E9426041F91089582E068E00E94C8030E
:1002C00081E06FE140E00E9426048830C9F76FE1C9
:1002D00040E0212F0E94380488E06FE140E00E9456
:1002E00026041F9108951F93182F82E068E00E9452
:1002F000C80381E06FE140E00E9426048830C9F71E
:100300001230A9F1133038F01031E1F11131D1F090
:1003100080E01F9108951123D9F78CE063E040E05D
:1003200020E00E94380487E164E042E020E00E947F
:10033000380485E16FE040E020E00E94380481E06D
:100340001F9108958CE063E040E023E00E943804B0
:1003500087E164E042E021E00E94380485E16FE03B
:1003600040E021E00E94380481E01F9108958CE074
:1003700063E040E021E00E94380487E164E042E06D
:1003800021E0D5CF8CE063E040E022E0F4CF3F9A5B
:10039000279A3E9A259A209A26980E94BF0380E0C9
:1003A0006AED72E00E94E304E89A469A289883E98D
:1003B00092E00197F1F700C00000469892E09A950C
:1003C000F1F700C0469A8DE10E94D9038230D9F737
:1003D0008CE10E94D9038330B1F782E068E00E948B
:1003E000C80381E06FE140E00E9426048830C9F72D
:1003F00083E060E344E020E00E94380483E068E0AA
:1004000043E020E00E94380483E067E040E021E020
:100410000E9438048EE260E245E021E00E94380448
:100420008CE060E847E021E00E94380484E062E06C
:1004300041E021E00E9438048EE068E00E94C80399
:1004400084E060E446E021E00E943804E091040189
:10045000F091050182E266A90E94C803E0910401BF
:10046000F091050167A983E20E94C803E0910401AD
:10047000F091050180E262A90E94C803E0910401A5
:10048000F091050163A981E20E94C80388E060E65B
:1004900045E021E00E9438048FE26FE040E023E075
:1004A0000E9438048EE268E043E020E00E943804B5
:1004B0008FE260EF44E025E00E943804E0910401FF
:1004C000F091050181AD0E94730188E06FE140E089
:1004D0002AE10E943804E0910401F091050185E0D1
:1004E0006FE040E022AD0E94380410927E02089531
:1004F0001F93182F803118F08FEF1F91089582E01D
:1005000068E00E94C80381E06FE140E00E94260499
:100510008830C9F785E06FE040E0212F0E94380461
:1005200085E06FE040E00E9426041F91089582E07C
:1005300063E00E94C80388E160E847E021E00E9490
:10054000380482E48A95F1F700C00895DF93CF93D1
:100550000F92CDB7DEB787E00E94D90380930601E2
:10056000CE01019661E00E94EB03898187FD07C0FF
:1005700086E060E847E00E942604882321F40F907B
:10058000CF91DF91089569816E5F69838FEF91E06C
:100590000E94EB038091000290910102877090709D
:1005A0008330910561F780910B02803441F70E94FE
:1005B0009338E5CF8FE00E94D90383FF05C02091D7
:1005C0007E02213029F085FF08950E94A602089539
:1005D00086FD09C082E060EE45E00E94260482E0CC
:1005E00066E00E94C80381E08093000182E080936E
:1005F0007E0208953898409A3998419A84E0809311
:10060000B8001092BC0088EF8093B900089594EA76
:100610009093BC00ECEBF0E090819923ECF7809391
:10062000BB0084E88093BC00ECEBF0E08081882381
:10063000ECF79091B900987F81E0903409F080E068
:1006400008958093BB0084E88093BC00ECEBF0E05D
:1006500080818823ECF70895882321F084EC80932F
:10066000BC0003C084E88093BC00ECEBF0E0808128
:100670008823ECF78091BB00089584E98093BC0047
:1006800008950E94FA0280E90E9407038CEA0E9402
:10069000210388E00E94210380E90E94070381E58D
:1006A0000E9421030E943D03089580E90E940703F0
:1006B00082E20E9421030E943D03089580E90E9486
:1006C000070381E50E9421030E943D0308950F93D3
:1006D0001F9380E90E9407038AEA0E94210381E9AF
:1006E0000E94070381E00E942C03082F80E00E94F3
:1006F0002C03182F0E943D03502F40E0212F30E0A3
:10070000242B352B822F932F1F910F9108950F9338
:100710001F93CF93DF93182F092F80E090E00E9462
:10072000551A8F3F81F0902F012F192FC0E0D0E094
:1007300003C0CE010E94551AF80181938F012196C2
:10074000C736D105B1F7DF91CF911F910F91089571
:100750000F931F93CF93DF93082F192FC0E0D0E0A2
:10076000F80161918F01CE010E945D1A2196C73672
:10077000D105B1F7DF91CF911F910F91089580E5D9
:100780008CBD81E08DBD8CB58C7F8CBD479A089562
:10079000F8949DB3E898806C47988EBD0DB407FE21
:1007A000FDCF6EBD0DB407FEFDCF479A9DBB78947B
:1007B0000895F8949DB3E898806847988EBD0DB46D
:1007C00007FEFDCF1EBC0DB407FEFDCF8EB5479AC8
:1007D0009DBB78940895F894479820E22EBD0DB4FF
:1007E00007FEFDCF1EBC613091F0362FFC010DB429
:1007F00007FEFDCF4EB51EBC419331503230B8F7E5
:100800006250262F30E02F5F3F4F820F931F0DB4B1
:1008100007FEFDCF2EB5FC012083479A78940895FA
:10082000FC01F894479880E68EBD0DB407FEFDCF1D
:10083000819161500DB407FEFDCF8EBD6623C1F7D7
:100840000DB407FEFDCF479A789408950F931F9338
:10085000062F142F0E94D9038023682F70E0CB014C
:1008600002C0959587951A95E2F71F910F9108950B
:10087000EF92FF920F931F93182F062FF42EE22E64
:100880000E94D903602F609568232E2D30E0A901C6
:1008900002C0440F551FFA94E2F74023642B812FC6
:1008A0000E94C8031F910F91FF90EF900895FB01E4
:1008B0009DB3E898479820E42EBD0DB407FEFDCF08
:1008C0008EBD0DB407FEFDCF819141500DB407FEE2
:1008D000FDCF8EBD4423C1F70DB407FEFDCF479A6F
:1008E0009DBB089500000000000000003DB3E898A3
:1008F00047981EBC0DB407FEFDCF8EBD0DB407FE9C
:10090000FDCF1EBC4130A1F0425050E0CB0101961A
:10091000840F951FFB010DB407FEFDCF2EB51EBC45
:100920002193E817F907B9F74F5F5F4F640F751F01
:100930000DB407FEFDCF8EB5FB018083479A3DBB0A
:100940000895CF93DF930000000000000000ADB3D6
:10095000E898479890E49EBD0DB407FEFDCF8EBD8C
:100960000DB407FEFDCFFB0181918EBD0DB407FED6
:10097000FDCFEB0189818EBD21814130A9F042502C
:1009800050E0CB010196840F951FFB010DB407FECB
:10099000FDCF3EB531932EBD2281E817F907B1F79F
:1009A0004F5F5F4F640F751F0DB407FEFDCF1EBC78
:1009B0000DB407FEFDCF8EB5FB018083479AADBB1A
:1009C000DF91CF910895E82FF0E0EE0FFF1FE95F70
:1009D000FE4F71836083882341F4E9E6F0E0808173
:1009E0008360808381E08CBB0895813059F4EFE609
:1009F000F0E080818F7D8083E1E8F0E08081806499
:100A00008083B59A08951F920F920FB60F9211240A
:100A10002F933F934F935F936F937F938F939F9306
:100A2000AF93BF93EF93FF93E0910701F09108011B
:100A30000995FF91EF91BF91AF919F918F917F9118
:100A40006F915F914F913F912F910F900FBE0F903B
:100A50001F9018951F920F920FB60F9211242F938B
:100A60003F934F935F936F937F938F939F93AF9336
:100A7000BF93EF93FF93E0910901F0910A0109956B
:100A8000FF91EF91BF91AF919F918F917F916F9166
:100A90005F914F913F912F910F900FBE0F901F903C
:100AA0001895AF92BF92CF92DF92EF92FF920F9381
:100AB0001F93DF93CF93CDB7DEB729970FB6F89486
:100AC000DEBF0FBECDBF1B821A821C821D821E821A
:100AD0001F82198210926F0078948981882309F00F
:100AE0001FC21886EE24EA9430E2C32E2BE0F22EC9
:100AF00093E3D92E82E1B82E2EC082E060EE45E06D
:100B00000E942604853009F461C08C819D81AE81EC
:100B1000BF81803231EA930737E0A30730E0B307A3
:100B200030F01C821D821E821F8281E089838C81AD
:100B30009D81AE81BF810196A11DB11D8C839D83D6
:100B4000AE83BF838AE18A95F1F700C0A8958981B9
:100B5000882309F04CC080910002909101028770B7
:100B600090708330910549F61C821D821E821F827F
:100B7000109201021092000240910B02403209F4DF
:100B80007DC1413230F5403109F4DEC0413108F415
:100B900078C0453109F4B9C0463109F075C090916B
:100BA0000C0280910D02192F00E09801280F311DD1
:100BB0003B832A838A819B8131E08D32930708F43D
:100BC0008AC1E0928C0140938D0156C081E08983F7
:100BD0009CCF423309F4BFC0433380F1433309F45F
:100BE00070C0403409F050C00E94933886CF1092F4
:100BF0000B02198282E080936F0086BB68E00E943E
:100C0000C8032885283039F081E06FE140E00E9478
:100C100026048830C9F70E945D0029960FB6F89423
:100C2000DEBF0FBECDBFCF91DF911F910F91FF901F
:100C3000EF90DF90CF90BF90AF900895403371F167
:100C4000413311F55C9881E049870E94201482E0CD
:100C50000E94201484E00E94201488E00E94201446
:100C600080910401909105010E94A8035C9AF09282
:100C70008C01498540938D010E940A0181E089839E
:100C80003CCF4F3009F4EFC0E0928C01AA24A3942A
:100C9000A0928D010E940A01A9822FCF49870E944C
:100CA00067039B838A83F0928C01498540938D0171
:100CB0008A819B8180938E018A819B8190938F0191
:100CC000DBCF1B821A828A819B8180329105A0F43E
:100CD000EA81FB81AA81BB81A25ABE4F8C91ED575C
:100CE000FE4F84878A819B8101969B838A838A81B8
:100CF0009B818032910560F3F0928C01D0928D013E
:100D00000E940A0181E08983F8CEF0928C01409321
:100D10008D01E0910401F091050190A981A99093C2
:100D20008E0180938F0196A587A590939001809363
:100D300091018081809392018181809393010E942F
:100D40000A0181E08983D9CEF0928C0140938D0114
:100D500081E08983D2CE80910E0290910F02A09102
:100D60001002B091110280935E0190935F01A093F5
:100D70006001B09361018091120290911302A091E1
:100D80001402B09115028093620190936301A093C5
:100D90006401B09365018091160290911702A091B1
:100DA0001802B09119028093660190936701A09395
:100DB0006801B093690180911A0290911B02A09181
:100DC0001C02B0911D0280936A0190936B01A09365
:100DD0006C01B0936D0180911E0290911F02A09151
:100DE0002002B091210280936E0190936F01A09335
:100DF0007001B09371018091220290912302A09121
:100E00002402B09125028093720190937301A09304
:100E10007401B09375018091260290912702A091F0
:100E20002802B09129028093760190937701A093D4
:100E30007801B093790180912A0290912B02A091C0
:100E40002C02B0912D0280937A0190937B01A093A4
:100E50007C01B0937D018091040190910501498747
:100E60000E94A80304CFF0928C0140938D010E9450
:100E70000A0181E08093130189833FCE82E068E01C
:100E80000E94C8038885883039F081E06FE140E036
:100E90000E9426048830C9F780910C020E9442010A
:100EA00090E09B838A8320910C028A819B8130E0B1
:100EB0002817390709F442C0E0928C01C0928D01D5
:100EC0008A819B8180938E010E940A0181E089833F
:100ED00028E0288712CE8A819B81909353018093CA
:100EE0005201809104019091050149870E94A80355
:100EF000F0928C01498540938D018091520190912F
:100F000053010097C1F081E080930101B0BE1092BF
:100F10000B0110920C0110920D0110920E01ACCE3B
:100F200010920B02198282E080936F0086BB68E00A
:100F30000E94C80369CE10920101E9CF80910C0292
:100F400080934F0180910401909105010E94A803B4
:100F5000F0928C01C0928D018A819B8180938E01D9
:100F6000B3CFF89492B1982B92B921B1982F909564
:100F7000292321B900000000149A0C98049BFECF8D
:100F8000000000000000000022B1292322B921B195
:100F9000282B21B90000000014980C9A00000000D2
:100FA000000022B1282B22B921B1292321B9000048
:100FB0000000149A0C98049BFECF00000000000073
:100FC000000014980C9A00000000000022B12923B0
:100FD00022B921B1282B21B900000000149A0C98E5
:100FE000049BFECF000000000000000014980C9A43
:100FF00000000000000022B1292322B921B1282BD2
:1010000021B900000000149A0C98049BFECF000048
:1010100000000000000014980C9A0000000000007E
:1010200022B1282B22B921B1292321B900000000C7
:10103000149A0C98049BFECF0000000000000000F2
:1010400014980C9A00000000000022B1292322B954
:1010500021B1282B21B900000000149A0C98049BA0
:10106000FECF000000000000000014980C9A000061
:101070000000000022B1292322B921B1282B21B977
:1010800000000000149A0C98049BFECF00000000A2
:101090000000000014980C9A00000000000022B12B
:1010A000292322B921B1282B21B900000000149A6C
:1010B0000C98049BFECF0000000000000000149874
:1010C0000C9A00000000000022B1292322B921B1AE
:1010D000282B21B900000000149A0C98049BFECF25
:1010E000000000000000000014980C9A00000000AE
:1010F000000022B1282B22B921B1292321B90000F7
:101100000000149A0C98049BFECF00000000000021
:10111000000014980C9A00000000662374F422B1B9
:10112000282B22B921B1292321B90000149A0C9847
:10113000049BFECF000000000EC022B1292322B97B
:1011400021B1282B21B9149A0C98049BFECF0000E2
:1011500000000000000014980C9A262F220F66FF52
:101160000EC032B1382B32B931B1392331B9000058
:10117000149A0C98049BFECF000000000EC032B100
:10118000392332B931B1382B31B9149A0C98049BF8
:10119000FECF000000000000000014980C9A322FCF
:1011A000330F26FF0EC022B1282B22B921B12923EB
:1011B00021B90000149A0C98049BFECF0000000097
:1011C0000EC022B1292322B921B1282B21B9149AAA
:1011D0000C98049BFECF0000000000000000149853
:1011E0000C9A232F220F36FF0EC032B1382B32B9A2
:1011F00031B1392331B90000149A0C98049BFECF09
:10120000000000000EC032B1392332B931B1382BA1
:1012100031B9149A0C98049BFECF00000000000026
:10122000000014980C9A322F330F26FF0EC022B103
:10123000282B22B921B1292321B90000149A0C9836
:10124000049BFECF000000000EC022B1292322B96A
:1012500021B1282B21B9149A0C98049BFECF0000D1
:1012600000000000000014980C9A232F220F36FF74
:101270000EC032B1382B32B931B1392331B9000047
:10128000149A0C98049BFECF000000000EC032B1EF
:10129000392332B931B1382B31B9149A0C98049BE7
:1012A000FECF000000000000000014980C9A322FBE
:1012B000330F26FF0EC022B1282B22B921B12923DA
:1012C00021B90000149A0C98049BFECF0000000086
:1012D0000EC022B1292322B921B1282B21B9149A99
:1012E0000C98049BFECF0000000000000000149842
:1012F0000C9A36FF10C022B1282B22B921B1292324
:1013000021B9000000000000149A0C98049BFECF45
:101310000000000010C022B1292322B921B1282BDE
:1013200021B900000000149A0C98049BFECF000025
:1013300000000000000014980C9A22B1282B22B95A
:1013400021B1292321B900000000000000000000A5
:10135000149A0C98049BFECF0000000000000000CF
:1013600014980C9A00000000442374F422B1282B36
:1013700022B921B1292321B90000149A0C98049BA9
:10138000FECF000000000EC022B1292322B921B1F6
:10139000282B21B9149A0C98049BFECF0000000062
:1013A0000000000014980C9A242F220F46FF0EC054
:1013B00032B1382B32B931B1392331B90000149A26
:1013C0000C98049BFECF000000000EC032B1392300
:1013D00032B931B1382B31B9149A0C98049BFECF35
:1013E000000000000000000014980C9A322F330F08
:1013F00026FF0EC022B1282B22B921B1292321B901
:101400000000149A0C98049BFECF000000000EC050
:1014100022B1292322B921B1282B21B9149A0C9881
:10142000049BFECF000000000000000014980C9AFE
:10143000232F220F36FF0EC032B1382B32B931B113
:10144000392331B90000149A0C98049BFECF000098
:1014500000000EC032B1392332B931B1382B31B965
:10146000149A0C98049BFECF0000000000000000BE
:1014700014980C9A322F330F26FF0EC022B1282B5E
:1014800022B921B1292321B90000149A0C98049B98
:10149000FECF000000000EC022B1292322B921B1E5
:1014A000282B21B9149A0C98049BFECF0000000051
:1014B0000000000014980C9A232F220F36FF0EC054
:1014C00032B1382B32B931B1392331B90000149A15
:1014D0000C98049BFECF000000000EC032B13923EF
:1014E00032B931B1382B31B9149A0C98049BFECF24
:1014F000000000000000000014980C9A322F330FF7
:1015000026FF0EC022B1282B22B921B1292321B9EF
:101510000000149A0C98049BFECF000000000EC03F
:1015200022B1292322B921B1282B21B9149A0C9870
:10153000049BFECF000000000000000014980C9AED
:1015400036FF10C022B1282B22B921B1292321B99D
:10155000000000000000149A0C98049BFECF0000CD
:10156000000010C022B1292322B921B1282B21B9B2
:1015700000000000149A0C98049BFECF00000000AD
:101580000000000014980C9A22B1282B22B921B136
:10159000292321B900000000000000000000149A77
:1015A0000C98049BFECF000000000000000014987F
:1015B0000C9A00000000000022B1292322B921B1B9
:1015C000282B21B900000000149A0C98049BFECF30
:1015D000000000000000000022B1822B82B981B11E
:1015E000982391B90000000078940895CF92DF927B
:1015F000FF920F931F93DF93CF93CDB7DEB728975A
:101600000FB6F894DEBF0FBECDBFFA01F89492B1C9
:10161000982B92B921B1982F9095292321B90000D8
:101620000000149A0C98049BFECF000000000000FC
:10163000000022B1292322B921B1282B21B90000B1
:10164000000014980C9A00000000000022B1282B22
:1016500022B921B1292321B900000000149A0C9865
:10166000049BFECF000000000000000014980C9ABC
:1016700000000000000022B1292322B921B1282B4B
:1016800021B900000000149A0C98049BFECF0000C2
:1016900000000000000014980C9A000000000000F8
:1016A00022B1292322B921B1282B21B90000000041
:1016B000149A0C98049BFECF00000000000000006C
:1016C00014980C9A00000000000022B1282B22B9C7
:1016D00021B1292321B900000000149A0C98049B21
:1016E000FECF000000000000000014980C9A0000DB
:1016F0000000000022B1292322B921B1282B21B9F1
:1017000000000000149A0C98049BFECF000000001B
:101710000000000014980C9A00000000000022B1A4
:10172000292322B921B1282B21B900000000149AE5
:101730000C98049BFECF00000000000000001498ED
:101740000C9A00000000000022B1292322B921B127
:10175000282B21B900000000149A0C98049BFECF9E
:10176000000000000000000014980C9A0000000027
:10177000000022B1292322B921B1282B21B9000070
:101780000000149A0C98049BFECF0000000000009B
:10179000000014980C9A00000000000022B1282BD1
:1017A00022B921B1292321B900000000149A0C9814
:1017B000049BFECF000000000000000014980C9A6B
:1017C00000000000662374F422B1282B22B921B155
:1017D000292321B90000149A0C98049BFECF000025
:1017E00000000EC022B1292322B921B1282B21B932
:1017F000149A0C98049BFECF00000000000000002B
:1018000014980C9A262F220F66FF0EC032B1382B87
:1018100032B931B1392331B90000149A0C98049BC4
:10182000FECF000000000EC032B1392332B931B111
:10183000382B31B9149A0C98049BFECF000000009D
:101840000000000014980C9A322F330F26FF0EC0B0
:1018500022B1282B22B921B1292321B90000149AE1
:101860000C98049BFECF000000000EC022B129237B
:1018700022B921B1282B21B9149A0C98049BFECFD0
:10188000000000000000000014980C9A232F220F83
:1018900036FF0EC032B1382B32B931B1392331B9EC
:1018A0000000149A0C98049BFECF000000000EC0AC
:1018B00032B1392332B931B1382B31B9149A0C987D
:1018C000049BFECF000000000000000014980C9A5A
:1018D000322F330F26FF0EC022B1282B22B921B19F
:1018E000292321B90000149A0C98049BFECF000014
:1018F00000000EC022B1292322B921B1282B21B921
:10190000149A0C98049BFECF000000000000000019
:1019100014980C9A232F220F36FF0EC032B1382BA9
:1019200032B931B1392331B90000149A0C98049BB3
:10193000FECF000000000EC032B1392332B931B100
:10194000382B31B9149A0C98049BFECF000000008C
:101950000000000014980C9A322F330F26FF0EC09F
:1019600022B1282B22B921B1292321B90000149AD0
:101970000C98049BFECF000000000EC022B129236A
:1019800022B921B1282B21B9149A0C98049BFECFBF
:10199000000000000000000014980C9A36FF10C0F0
:1019A00022B1282B22B921B1292321B9000000003E
:1019B0000000149A0C98049BFECF0000000010C099
:1019C00022B1292322B921B1282B21B9000000001E
:1019D000149A0C98049BFECF000000000000000049
:1019E00014980C9A22B1282B22B921B1292321B9AC
:1019F00000000000000000000000149A0C98049BF6
:101A0000FECF000000000000000014980C9A0000B7
:101A10000000000022B1282B22B921B1292321B9CD
:101A200000000000149A0C98049BFECF22B12923D9
:101A300022B921B1282B21B914980C9A000000007A
:101A4000000022B1282B22B921B1292321B900009D
:101A50000000149A0C98049BFECF000000000000C8
:101A6000000014980C9A00000000000022B1292305
:101A700022B921B1282B21B900000000149A0C983A
:101A8000049BFECF000000000000000014980C9A98
:101A900000000000000022B1292322B921B1282B27
:101AA00021B900000000149A0C98049BFECF00009E
:101AB00000000000000014980C9A000000000000D4
:101AC00022B1282B22B921B1292321B9000000001D
:101AD000149A0C98049BFECF000000000000000048
:101AE00014980C9A00000000000022B1292322B9AA
:101AF00021B1282B21B900000000149A0C98049BF6
:101B0000FECF000000000000000014980C9A0000B6
:101B10000000000022B1292322B921B1282B21B9CC
:101B200000000000149A0C98049BFECF00000000F7
:101B30000000000014980C9A00000000000022B180
:101B4000292322B921B1282B21B900000000149AC1
:101B50000C98049BFECF00000000000000001498C9
:101B60000C9A00000000000022B1282B22B921B1FC
:101B7000292321B900000000149A0C98049BFECF81
:101B8000000000000000000014980C9A0000000003
:101B9000000022B1282B22B921B1292321B900004C
:101BA0000000149A0C98049BFECF00000000000077
:101BB000000014980C9A00000000000000000000D3
:101BC000000000000000000000000000149A0C98C3
:101BD000049BFECF20B12823288714980C9A00007C
:101BE00000000000000000000000000000000000F5
:101BF00000000000149A0C98049BFECF20B128230B
:101C00002F8314980C9A00000000000000000000D0
:101C1000000000000000000000000000149A0C9872
:101C2000049BFECF20B128232E8314980C9A000029
:101C300000000000000000000000000000000000A4
:101C400000000000149A0C98049BFECF20B12823BA
:101C50002D8314980C9A0000000000000000000082
:101C6000000000000000000000000000149A0C9822
:101C7000049BFECF20B128232C8314980C9A0000DB
:101C80000000000000000000000000000000000054
:101C900000000000149A0C98049BFECF20B128236A
:101CA0002B8314980C9A0000000000000000000034
:101CB000000000000000000000000000149A0C98D2
:101CC000049BFECF20B128232A8314980C9A00008D
:101CD0000000000000000000000000000000000004
:101CE00000000000149A0C98049BFECF20B128231A
:101CF000298314980C9A22B1282B22B921B12923C7
:101D000021B900000000000000000000149A0C98A7
:101D1000049BFECF000000000000000014980C9A05
:101D200000000000000022B1292322B921B1282B94
:101D300021B900000000149A0C98049BFECF00000B
:101D400000000000000022B1822B82B981B19823EB
:101D500091B900000000DF011D926D011182CF01D9
:101D600002961282AF014D5F5F4F13829E01275F83
:101D70003F4FBE016F5F7F4F1081110F1083D6015F
:101D80001C91110F1C93DC011C91110F1C93D901A4
:101D90001E919D01DA01FC90FF0C012F01700F29AB
:101DA0000C93012F02700695DC01FC900F290C9317
:101DB000012F047006950695D601FC900F290C930F
:101DC00018701695169516950081102B10832617FE
:101DD000370791F6789428960FB6F894DEBF0FBEB9
:101DE000CDBFCF91DF911F910F91FF90DF90CF90EA
:101DF0000895AF92BF92CF92DF92EF92FF920F932E
:101E00001F93DF93CF93CDB7DEB760970FB6F894EB
:101E1000DEBF0FBECDBFFB01F89492B1982B92B9F3
:101E200021B1982F9095292321B900000000149A20
:101E30000C98049BFECF000000000000000022B1BF
:101E4000292322B921B1282B21B9000000001498C0
:101E50000C9A00000000000022B1282B22B921B109
:101E6000292321B900000000149A0C98049BFECF8E
:101E7000000000000000000014980C9A0000000010
:101E8000000022B1292322B921B1282B21B9000059
:101E90000000149A0C98049BFECF00000000000084
:101EA000000014980C9A00000000000022B12923C1
:101EB00022B921B1282B21B900000000149A0C98F6
:101EC000049BFECF000000000000000014980C9A54
:101ED00000000000000022B1282B22B921B12923E3
:101EE00021B900000000149A0C98049BFECF00005A
:101EF00000000000000014980C9A00000000000090
:101F000022B1292322B921B1282B21B900000000D8
:101F1000149A0C98049BFECF000000000000000003
:101F200014980C9A00000000000022B1292322B965
:101F300021B1282B21B900000000149A0C98049BB1
:101F4000FECF000000000000000014980C9A000072
:101F50000000000022B1292322B921B1282B21B988
:101F600000000000149A0C98049BFECF00000000B3
:101F70000000000014980C9A00000000000022B13C
:101F8000292322B921B1282B21B900000000149A7D
:101F90000C98049BFECF0000000000000000149885
:101FA0000C9A00000000000022B1282B22B921B1B8
:101FB000292321B900000000149A0C98049BFECF3D
:101FC000000000000000000014980C9A00000000BF
:101FD000000022B1292322B921B1282B21B9000008
:101FE0000000149A0C98049BFECF00000000000033
:101FF000000014980C9A00000000000022B1282B69
:1020000022B921B1292321B900000000149A0C98AB
:10201000049BFECF000000000000000014980C9A02
:1020200000000000000022B1292322B921B1282B91
:1020300021B900000000149A0C98049BFECF000008
:1020400000000000000014980C9A0000000000003E
:1020500022B1282B22B921B1292321B90000000087
:10206000149A0C98049BFECF0000000000000000B2
:1020700014980C9A00000000000022B1292322B914
:1020800021B1282B21B900000000149A0C98049B60
:10209000FECF000000000000000014980C9A000021
:1020A0000000000022B1292322B921B1282B21B937
:1020B00000000000149A0C98049BFECF0000000062
:1020C0000000000014980C9A00000000000022B1EB
:1020D000292322B921B1282B21B900000000149A2C
:1020E0000C98049BFECF0000000000000000149834
:1020F0000C9A00000000000022B1292322B921B16E
:10210000282B21B900000000149A0C98049BFECFE4
:10211000000000000000000014980C9A000000006D
:10212000000022B1282B22B921B1292321B90000B6
:102130000000149A0C98049BFECF000000000000E1
:10214000000014980C9A00000000000022B1282B17
:1021500022B921B1292321B900000000149A0C985A
:10216000049BFECF22B1292322B921B1282B21B90A
:1021700014980C9A00000000000022B1282B22B90C
:1021800021B1292321B900000000149A0C98049B66
:10219000FECF000000000000000014980C9A000020
:1021A0000000000022B1292322B921B1282B21B936
:1021B00000000000149A0C98049BFECF0000000061
:1021C0000000000014980C9A00000000000022B1EA
:1021D000292322B921B1282B21B900000000149A2B
:1021E0000C98049BFECF0000000000000000149833
:1021F0000C9A00000000000022B1282B22B921B166
:10220000292321B900000000149A0C98049BFECFEA
:10221000000000000000000014980C9A000000006C
:10222000000022B1292322B921B1282B21B90000B5
:102230000000149A0C98049BFECF000000000000E0
:10224000000014980C9A00000000000022B129231D
:1022500022B921B1282B21B900000000149A0C9852
:10226000049BFECF000000000000000014980C9AB0
:1022700000000000000022B1292322B921B1282B3F
:1022800021B900000000149A0C98049BFECF0000B6
:1022900000000000000014980C9A000000000000EC
:1022A00022B1282B22B921B1292321B90000000035
:1022B000149A0C98049BFECF000000000000000060
:1022C00014980C9A00000000000022B1282B22B9BB
:1022D00021B1292321B900000000149A0C98049B15
:1022E000FECF000000000000000014980C9A0000CF
:1022F00000000000000000000000000000000000DE
:1023000000000000149A0C98049BFECF20B12823F3
:10231000288714980C9A00000000000000000000BC
:10232000000000000000000000000000149A0C985B
:10233000049BFECF20B128232F8314980C9A000011
:10234000000000000000000000000000000000008D
:1023500000000000149A0C98049BFECF20B12823A3
:102360002E8314980C9A000000000000000000006A
:10237000000000000000000000000000149A0C980B
:10238000049BFECF20B128232D8314980C9A0000C3
:10239000000000000000000000000000000000003D
:1023A00000000000149A0C98049BFECF20B1282353
:1023B0002C8314980C9A000000000000000000001C
:1023C000000000000000000000000000149A0C98BB
:1023D000049BFECF20B128232B8314980C9A000075
:1023E00000000000000000000000000000000000ED
:1023F00000000000149A0C98049BFECF20B1282303
:102400002A8314980C9A00000000000000000000CD
:10241000000000000000000000000000149A0C986A
:10242000049BFECF20B12823298314980C9A000026
:102430000000000022B1292322B921B1282B21B9A3
:1024400000000000149A0C98049BFECF00000000CE
:102450000000000014980C9A00000000000022B157
:10246000282B22B921B1292321B900000000149A98
:102470000C98049BFECF20B12823288B14980C9A2B
:10248000000000000000000000000000000000004C
:10249000000000000000149A0C98049BFECF20B1AD
:1024A00028232F8714980C9A0000000000000000D9
:1024B0000000000000000000000000000000149A6E
:1024C0000C98049BFECF20B128232E8714980C9AD9
:1024D00000000000000000000000000000000000FC
:1024E000000000000000149A0C98049BFECF20B15D
:1024F00028232D8714980C9A00000000000000008B
:102500000000000000000000000000000000149A1D
:102510000C98049BFECF20B128232C8714980C9A8A
:1025200000000000000000000000000000000000AB
:10253000000000000000149A0C98049BFECF20B10C
:1025400028232B8714980C9A00000000000000003C
:102550000000000000000000000000000000149ACD
:102560000C98049BFECF20B128232A8714980C9A3C
:10257000000000000000000000000000000000005B
:10258000000000000000149A0C98049BFECF20B1BC
:102590002823298714980C9A22B1282B22B921B11B
:1025A000292321B900000000000000000000149A57
:1025B0000C98049BFECF000000000000000014985F
:1025C0000C9A00000000000022B1292322B921B199
:1025D000282B21B900000000149A0C98049BFECF10
:1025E000000000000000000022B1822B82B981B1FE
:1025F000982391B900000000DF011D921D925D013A
:10260000138212829F012C5F3F4F15821482CF01EB
:10261000069617821682AE014F5E5F4F6E010894D8
:10262000C11CD11C60817181660F771F718360832B
:10263000D5016D917C911197660F771F6D937C93F7
:10264000D9016D917C911197660F771F6D937C93E3
:10265000DC016D917C911197660F771F6D937C93D0
:10266000DA016E91AD01062F017010E0E080F1807B
:102670000E291F2911830083062F0270069510E092
:10268000D501ED90FC9011970E291F290D931C93F5
:10269000062F04700695069510E0D901ED90FC9088
:1026A00011970E291F290D931C93687066956695E6
:1026B000669570E0DC010D911C911197602B712BD8
:1026C00011967C936E934C155D0509F0ABCF80811C
:1026D000918195958795918380838281938195954A
:1026E000879593838283848195819595879595833A
:1026F000848386819781959587959783868378943F
:1027000060960FB6F894DEBF0FBECDBFCF91DF91BC
:102710001F910F91FF90EF90DF90CF90BF90AF90FF
:102720000895FF920F931F93CF93DF93F82E82307B
:1027300009F475C0833008F467C0843009F46CC0B4
:10274000883009F063C003E010E0E801CC0FDD1F22
:102750009801220F331F220F331F220F331FC20F86
:10276000D31FC00FD11FC95EDE4F8F2D60E34A819A
:102770000E94B1078F2D60E44B810E94B1078F2D1D
:1027800062E44C810E94B1078F2D63E44D810E9469
:10279000B1078F2D62E54E810E94B1078F2D63E551
:1027A0004F810E94B1078F2D64E548850E94B107D3
:1027B0008F2D65E549850E94B1078F2D66E54A8515
:1027C0000E94B1070F5F1F4FF801EE0FFF1F980126
:1027D000220F331F220F331F220F331FE20FF31F6D
:1027E000E00FF11FE95EFE4F8F2D67E540810E94EB
:1027F000B1078F2D60E74C850E94B107DF91CF9123
:102800001F910F91FF900895813061F0DF91CF917A
:102810001F910F91FF90089502E010E096CF01E024
:1028200010E093CF00E010E090CF0E94F90E0895E1
:1028300040911D014E7F406862E50E94B1070895F6
:102840002F923F924F925F926F927F928F929F92C0
:10285000AF92BF92CF92DF92EF92FF920F931F93AE
:10286000DF93CF93CDB7DEB72D970FB6F894DEBFC9
:102870000FBECDBFB82E3E010894611C711C88E0CC
:10288000F30111928A95E9F7FB2DF23009F4F6C0B5
:10289000F33008F4D6C02B2D243009F4EDC02830D5
:1028A00009F0D1C003E08B2D66E540E00E94B1073E
:1028B000802F90E09D878C87880F991F9B878A8740
:1028C000EC85FD85EE0FFF1FEE0FFF1FEE0FFF1FC4
:1028D000E80FF91F2C853D85E20FF31FE95EFE4FDF
:1028E00012868FE097E20197F1F700C0000004E63E
:1028F00010E0CC24DD2476018A849B84860C971C0E
:102900008B2D0E941814EBEDF5E03197F1F700C024
:1029100000008B2DB3010E94F90EF401808191819A
:10292000AA2797FDA095BA2FC80ED91EEA1EFB1E36
:10293000118210820150104019F7C701B60124E638
:1029400030E040E050E00E94181AC901F4013183E0
:1029500020832051354FF5E1213E3F0708F463C045
:10296000181619060CF08EC0AA248A849B84860C43
:10297000971C74E6272E312C412C512CA3942A2D20
:10298000206429878B2D66E5422F0E94B1078FE0D6
:1029900097E20197F1F700C00000F4011182108264
:1029A00004E610E0CC24DD2476018B2D0E9418145F
:1029B0008BED95E00197F1F700C000008B2DB3017E
:1029C0000E94F90EF40180819181AA2797FDA095BC
:1029D000BA2FC80ED91EEA1EFB1E118210820150AA
:1029E000104019F7C701B601A20191010E94181AFF
:1029F000C901F40131832083FA2DFF3321F12AE04C
:102A0000813F92070CF0BACF8BE090E02C853D859A
:102A1000289FF001299FF00D389FF00D1124E95EE9
:102A2000FE4F39853287AA85BB85AA5ABE4FEA85F3
:102A3000FB85E60DF71D8081918111969C938E9305
:102A400002C0F130E9F02D960FB6F894DEBF0FBE4C
:102A5000CDBFCF91DF911F910F91FF90EF90DF904D
:102A6000CF90BF90AF909F908F907F906F905F902E
:102A70004F903F902F90089502E015CF01E013CFC3
:102A800000E011CFAA248A849B84860C971C64E6FC
:102A9000262E312C412C512CA3948B2D66E54A2DEA
:102AA0000E94B1078FE097E20197F1F700C00000A4
:102AB000F4011182108204E610E0CC24DD247601BA
:102AC0008B2D0E9418148BED95E00197F1F700C053
:102AD00000008B2DB3010E94F90EF40180819181D9
:102AE000AA2797FDA095BA2FC80ED91EEA1EFB1E75
:102AF000118210820150104019F7C701B601A201DE
:102B000091010E94181AC901F40131832083FA2D22
:102B1000FF3309F498CF25EF803192070CF4BCCF36
:102B20008BE090E02C853D85289FF001299FF00DDA
:102B3000389FF00D1124E95EFE4FA28674CF1F93DB
:102B4000182F5F9A60E340E00E94B107812F63E590
:102B500040E00E94B1071F9108951F93CF93DF9328
:102B6000182F843091F1853040F0883089F18F3012
:102B700049F1DF91CF911F910895813019F1823091
:102B8000C1F721E030E0E901CC0FDD1FA901440FBE
:102B9000551F440F551F440F551FC40FD51FC20F9B
:102BA000D31FC95EDE4F812F60E34A810E94B107C7
:102BB000812F63E54F810E94B1075F98DF91CF912C
:102BC0001F91089520E030E0DECF22E030E0DBCF3F
:102BD00023E030E0D8CFFF920F931F93DF93CF9382
:102BE0000F92CDB7DEB7182FF62E042F198266E5A7
:102BF000AE014F5F5F4F0E94F60A4F2D4295440F82
:102C0000440F407C89818078482B402B4983812F59
:102C100066E50E94B1070F90CF91DF911F910F9150
:102C2000FF9008958AE48093800181E098E8909372
:102C300082018093810180917E0190917F01809338
:102C40008301E0910401F091050186A997A9909371
:102C500085018093840124A935A9309387012093AD
:102C60008601909389018093880182A993A990930A
:102C70008B0180938A01E0910201F0910301809120
:102C80007E0190917F0191AF80AF019690937F017B
:102C900080937E01809111019091120193AF82AFD8
:102CA0008091790084AF0E948C000895109280007A
:102CB00089E080938100609154017091550180E01A
:102CC00090E00E9467199B01AC0160E876E988E119
:102CD0009BE40E94D3180E943B1970938900609373
:102CE0008800109285001092840010928B00109240
:102CF0008A00109287001092860082E080936F0015
:102D000086BB089587EA80937C0085EE80937A00E5
:102D100010927B00089585B78F7E85BF1092640066
:102D200080E8809361001092610011B89FE192B930
:102D300091EB94B990E595B990EC97B988B980E991
:102D40008AB98BB9549A5C9A8091040190910501DB
:102D50000E9487038091520190915301009701F1E5
:102D600081E0809301010E94410382E880BF0E94BC
:102D700056160E9482160E94C70187EA91E60197C3
:102D8000F1F700C0000081E00E94911382E00E94F0
:102D9000911384E00E94911388E00E94911308959A
:102DA00010920101E0CFF894E1E6F0E080E8808342
:102DB00083E080838EEF809364008AE180BF83B7D5
:102DC000817F83BF83B7816083BF7894889583B701
:102DD0008E7F83BF08952F923F924F925F926F92A2
:102DE0007F928F929F92AF92BF92CF92DF92EF929B
:102DF000FF920F931F93DF93CF93CDB7DEB7289742
:102E00000FB6F894DEBF0FBECDBFF8940E948B16AC
:102E10006E010894C11CD11C88E0D6011D928A95D0
:102E2000E9F71092160112E0FF24F39404E0ABE0FE
:102E3000AA2EB12CF6E18F2E912CE1E26E2E712C90
:102E40007CE2472E512C65E0262E57E0352E49E0D6
:102E5000E42E80911601833079F0843020F58130A2
:102E600009F459C0823080F14D9B92C0F092160156
:102E700080911601833089F7F8940E945E038FE0F9
:102E80000E94AD1510920F0110920B0110920C01CF
:102E900010920D0110920E01E092810016BB789401
:102EA00000931601D6CF853079F08530D0F480912B
:102EB0001001882309F084C080910101813009F458
:102EC000CDC000931601C5CF1092810016BB8FE0D4
:102ED0000E949F150E94550310927A000E94740070
:102EE000C5CF863079F0873009F0B3CF8FE798E30C
:102EF000A1E081509040A040E1F700C000000E9496
:102F00005105DFCF0E94121680910B02882341F0F9
:102F1000309216019ECF0E94D3161093160199CFBE
:102F20004D9933C020915401309155014091520187
:102F3000509153010E94F5199B01AC0180910B0146
:102F400090910C01A0910D01B0910E012817390745
:102F50004A075B0778F480910101882359F01092A9
:102F60000B0110920C0110920D0110920E01209293
:102F700016016FCF809179008C3A38F0809113015F
:102F8000882309F49ECF109213012092160161CF7D
:102F9000109264000E948216E3ECF9E03197F1F799
:102FA00000C00000809179008E3A08F45FCFF0E80D
:102FB000F09361001092610083E08093160149CF85
:102FC0001092100180910B0190910C01A0910D01C4
:102FD000B0910E010196A11DB11D80930B0190933C
:102FE0000C01A0930D01B0930E01809114019091FA
:102FF0001501019690931501809314015C988FE060
:103000000E9418148FE0B6010E9415145C9AE0919A
:103010000201F091030120910F01822F90E0880FAF
:10302000991F880F991F880F991FE80FF91FB18208
:10303000A082938282827582648257824682822F26
:103040008F5F80930F018330A9F0873008F434CF6D
:1030500010920F0196E090931601FBCE00B605FC8E
:1030600030CF10920B0110920C0110920D011092B2
:103070000E0127CF809154019091550165E070E0D9
:103080000E94041A809114019091150186179707E8
:1030900008F412CF0E9467039093120180931101EC
:1030A000109215011092140180910F01CECF23E0F0
:1030B0005C9831E0843F930789F143E0883E9407B0
:1030C00099F08A3F910509F43DC05C9A51E0843F34
:1030D000950771F163E0883E960781F08A3F91057C
:1030E000D9F1215029F708954FE754E86EE1415096
:1030F00050406040E1F700C000005C9A4FE754E8A0
:103100006EE1415050406040E1F700C000002150A6
:1031100051F35C9831E0843F930779F64FE352E432
:103120006FE0415050406040E1F700C000005C9A01
:103130004FE352E46FE0415050406040E1F700C07F
:103140000000E5CF4FE151EA67E041505040604058
:10315000E1F700C000005C9A4FE151EA67E041509E
:1031600050406040E1F700C00000D1CF1F920F92A5
:103170000FB60F9211248F9381E0809310018F91ED
:103180000F900FBE0F901F9018951F920F920FB6C1
:103190000F9211248F9382E180BF8F910F900FBE09
:1031A0000F901F9018950CD0E6C0DED040F0D5D01F
:1031B00030F021F45F3F19F0C7C0511110C1CAC0EF
:1031C000EBD098F39923C9F35523B1F3951B550B15
:1031D000BB27AA2762177307840738F09F5F5F4FEA
:1031E000220F331F441FAA1FA9F333D00E2E3AF02B
:1031F000E0E830D091505040E695001CCAF729D045
:10320000FE2F27D0660F771F881FBB1F2617370793
:103210004807AB07B0E809F0BB0B802DBF01FF27C3
:1032200093585F4F2AF09E3F510568F08DC0D7C07C
:103230005F3FECF3983EDCF3869577956795B795FD
:10324000F7959F5FC9F7880F911D9695879597F918
:103250000895E1E0660F771F881FBB1F6217730791
:103260008407BA0720F0621B730B840BBA0BEE1FA6
:1032700088F7E095089598D088F09F5790F0B92F7F
:103280009927B751A0F0D1F0660F771F881F991FBB
:103290001AF0BA95C9F712C0B13081F09FD0B1E0F1
:1032A00008959CC0672F782F8827B85F39F0B93F01
:1032B000CCF3869577956795B395D9F73EF49095BD
:1032C0008095709561957F4F8F4F9F4F0895E8943B
:1032D00009C097FB3EF490958095709561957F4F5E
:1032E0008F4F9F4F9923A9F0F92F96E9BB2793950C
:1032F000F695879577956795B795F111F8CFFAF41C
:10330000BB0F11F460FF1BC06F5F7F4F8F4F9F4F4C
:1033100016C0882311F096E911C0772321F09EE8AA
:10332000872F762F05C0662371F096E8862F70E010
:1033300060E02AF09A95660F771F881FDAF7880FEA
:103340009695879597F9089597F99F6780E870E0BB
:1033500060E008959FEF80EC089500240A9416160B
:10336000170618060906089500240A941216130673
:10337000140605060895092E0394000C11F4882301
:1033800052F0BB0F40F4BF2B11F460FF04C06F5F1D
:103390007F4F8F4F9F4F089557FD9058440F551FF3
:1033A00059F05F3F71F04795880F97FB991F61F0C7
:1033B0009F3F79F087950895121613061406551F3E
:1033C000F2CF4695F1DF08C0161617061806991FAA
:1033D000F1CF86957105610508940895E894BB279F
:1033E00066277727CB0197F90895539FC001429F25
:1033F000B001529F700D811D1124911D349F700DDD
:10340000811D1124911D0895AA1BBB1B51E107C00A
:10341000AA1FBB1FA617B70710F0A61BB70B881F64
:10342000991F5A95A9F780959095BC01CD010895F3
:1034300097FB092E05260ED057FD04D014D00AD0D4
:10344000001C38F450954095309521953F4F4F4FD3
:103450005F4F0895F6F790958095709561957F4F31
:103460008F4F9F4F0895A1E21A2EAA1BBB1BFD018F
:103470000DC0AA1FBB1FEE1FFF1FA217B307E40753
:10348000F50720F0A21BB30BE40BF50B661F771FAB
:10349000881F991F1A9469F760957095809590958B
:1034A0009B01AC01BD01CF010895F999FECF92BDFA
:1034B00081BDF89A992780B50895262FF999FECFF6
:1034C0001FBA92BD81BD20BD0FB6F894FA9AF99A41
:0A34D0000FBE01960895F894FFCF97
:0634DA0001018C01170145
:10700000DF93CF930F92CDB7DEB7198282E06FE1A5
:1070100040E026E00E943804000081E06FE140E09B
:107020000E9426048630C9F700008FE068E043E044
:107030000E9426048823C9F3CE01019661E00E94D4
:10704000EB0329818FEF91E0622F0E94EB030F90F9
:10705000CF91DF910895DF93CF930F92CDB7DEB735
:10706000898385E08093800182E098E89093820193
:10707000809381018FEF809383018981882F90E035
:107080008130910521F08230910559F014C0809132
:1070900081019091820180629093820180938101AD
:1070A0000AC0809181019091820180619093820158
:1070B0008093810100002091800180E891E0622F9F
:1070C0000E94100482E06FE140E029E00E94380451
:1070D000000081E06FE140E00E9426048930C9F79A
:1070E00085E290E025E230E0F90120812160FC0199
:1070F00020830000000000000000000085E290E016
:1071000025E230E0F90120812E7FFC012083000080
:107110008FE068E043E00E9426048823C9F30F90C3
:10712000CF91DF910895DF93CF93CDB7DEB7C750EE
:10713000D1400FB6F894DEBF0FBECDBF20E8CE0120
:107140000896FC01322F11923A95E9F7CE01885743
:107150009F4F20E8FC01322F11923A95E9F71A82ED
:10716000198280EA8B831C821D821E821F82F89402
:107170008DE390E0FC01108288E690E0FC01108233
:1071800084E690E02BEFFC0120838BE290E02BE281
:1071900030E0F90120812061FC01208380E00E9421
:1071A0002B380E94003886E060E847E00E94260401
:1071B000813009F062C080910002909101028770D5
:1071C00090708130910509F046C089819A81817063
:1071D00090700097D1F41C8214C08C81882F90E0AD
:1071E0002C81222F30E0255F3D4FF90140819E0127
:1071F000285F3F4F820F931FFC0140838C818F5F7C
:107200008C838C8188234CF71EC01C8216C08C8115
:10721000882F90E0805C9F4F2C81222F30E0255FEB
:107220003D4FF90140819E01285F3F4F820F931F20
:10723000FC0140838C818F5F8C838C8188233CF799
:107240008B818F5F8B8389819A8101969A83898351
:1072500080E00E942B388091000290910102F8E8B2
:1072600083309F0769F480910B02803449F480E0F9
:107270000E942B3881E08D8303C081E00E942B386F
:107280008D81882309F48DCF81E180935700E895A3
:107290000C940000C95FDE4F0FB6F894DEBF0FBE3E
:1072A000CDBFCF91DF910895DF93CF93CDB7DEB7F8
:1072B00028970FB6F894DEBF0FBECDBF9E838D8397
:1072C00078876F838FE390E0FC018081882F90E0C6
:1072D000827090700097B1F78D819E819695982F5E
:1072E00088279795879523E0FC0120935700E89520
:1072F00087E590E0FC018081882F90E0817090709C
:107300008823B1F71A8219823AC08F819885FC01CF
:107310008081882F90E09C838B838F819885019654
:1073200098878F838F819885FC018081882F90E0DA
:10733000982F88272B813C81820F931F9C838B83FE
:107340008F819885019698878F838D819E819C017E
:107350003695322F22273795279589819A81820F7A
:10736000931F41E02B813C81FC01090140935700B0
:10737000E895112489819A8102969A83898389816B
:107380009A818038910508F4C0CF8D819E819695B1
:10739000982F88279795879525E0FC012093570023
:1073A000E89587E590E0FC018081882F90E081706E
:1073B00090708823B1F728960FB6F894DEBF0FBE01
:1073C000CDBFCF91DF910895DF93CF93CDB7DEB7D7
:1073D00029970FB6F894DEBF0FBECDBF9F838E8373
:1073E000798768878EE190E09B838A831D821C8267
:1073F0001982198225C08E819F819C013695322F7A
:107400002227379527958981882F90E0282B392BC3
:107410008A819B81FC0131832083C8958C819D8169
:10742000FC0180819181282F88859985FC0120832A
:107430008885998501969987888789818F5F898357
:1074400089818138C0F229960FB6F894DEBF0FBE4D
:08745000CDBFCF91DF9108953B
:00000001FF
